:400000000080002011000000810200008102000080B500AF024A034B1B68136000F05CF9BC760040FA46004010B5054C237833B9044B13B10448AFF300800123237010BDBC
:400040009881FF1F00000000A02E0000084B10B51BB108480849AFF300800848036803B910BD074B002BFBD0BDE81040184700BF00000000A02E00009C81FF1F0881FF1F85
:400080000000000080B500AF02F088F801F0F2F903461A463E4B1A703D4B1B78582B54D0582B0DDC522B30D0522B04DC002B6CD0432B46D064E0532B10D0572B49D05FE0E3
:4000C000732B0BD0732B04DC632B3AD0722B1CD056E0772B3DD0782B37D051E02D4B1B7883F00103DAB22B4B1A702A4B1B78184602F062FA274B1B78274828491A4602F02F
:40010000C5FA254801F02CFA40E0012000F0A8FD0346002B14D000F0CBFD0346184600F0FBFD03461A461E4B1A601D4B1B681A481C491A4602F0AAFA174801F011FA25E073
:4001400024E0194B01221A7020E0174B00221A701CE0164B1B7883F00103DAB2134B1A70124B1B78184602F041FA104B1B780A480F491A4602F08AFA074801F0F1F905E089
:400180000C4801F0EDF900BF00E000BF80BD00BFB481FF1FBD81FF1FC081FF1FA42E0000B881FF1FBC2E0000BC81FF1FBE81FF1FD42E0000EC2E000080B500AF284801F080
:4001C0009FFF62B600F024FD01F0D4F8202001F041F901F013FF02F02FF802F0D5F9002002F0EAF900F02CFD1E4B1B78184602F0FDF91D4801F0B4F900F05AFD03461846F3
:4002000000F08AFD03461A46184B1A60174B1B68174818491A4602F039FA154801F0A0F9154B1B78002B19D0012000F019FD0346002B13D000F03CFD0346184600F06CFD02
:4002400003461A46094B1A60084B1B6808480B491A4602F01BFA064801F082F9E0E700BF85000000BE81FF1F002F0000B881FF1FC081FF1F102F0000BC81FF1F2C2F00002A
:4002800080B400AFFEE700BF80B584B000AF78600F4B1A687B6813441A460E4BD31A802B09DC0B4B1B68FB60094B1A687B681344074A136007E002F0A9F902460C2313600E
:4002C0004FF0FF33FB60FB6818461037BD4680BD0C81FF1F1082FF1F80B586B000AF224B7B61224B3B61204B7B6135E03B691B68FB603B695B68BB603B699B683B6000235E
:400300007B600CE0FB681A68BB681A60BB680433BB60FB680433FB607B6804337B607A683B689A42EED13B69DB683B6000237B6008E0BB6800221A60BB680433BB607B6876
:4003400004337B607A683B689A42F2D13B6910333B617B69013B7B617B69002BC6D102F05BF9FFF729FFFEE7010000001034000080B582B000AF184B184A1A60184A184B7A
:400380001B6843F40073136000237B600FE07B68032B04D8134A7B6852F8233000E0124B12497A6841F822307B6801337B607B682F2BECD90E4B1B78DAB20E4B1A700E4B39
:4003C0000A4A1A6000F006FA01F096FB0B4B00221A600837BD4680BD0CED00E00004FA0514ED00E000000000810200000080FF1FBC7600400481FF1F08ED00E00081FF1FE5
:4004000080B582B000AF78603960786800213A6802F033F90837BD4680BD00BF80B584B000AFF860B9607A60F868B9687A6802F019F91037BD4680BD80B483B000AF034686
:40044000FB71FEE780B487B000AF7860396000233B6100237B6127E07B699B007A6813441B68BB60BB68FB73BB6823F0FF03BB6014E03B695B003A6813441B781A46BB689F
:40048000134419463B695B003A6813445B780B703B6901333B61FB7B013BFB73FB7B002BE7D17B6901337B617B691D2BD4D91C37BD465DF8047B704780B582B000AF424B02
:4004C00000221A80414B50221A70414B19221A80404B18221A70404BEF221A803F4B18221A703F483F490422FFF798FF3E4B02221A704FF0402308221A703C4B03221A70FF
:400500003B4B3C4A1278D2B21A703B4B08221A803A4B41F251221A800023FB7019237B6014E0FB785B00DAB2354B1B78DBB203F00103DBB21343DBB203F00303FB704FF467
:40054000F07001F0ADFA7B68013B7B607B68002B02D0FB78032BE4D17B68002B02D10320FFF76AFF274B4FF480721A80254B07221A70254B00221A70244B48221A70214BA1
:4005800000221A70224B02221A70224B04221A70214A214B1B78DBB243F00703DBB213701E4A1E4B1B78DBB243F00103DBB213701B4A1B4B1B78DBB263F07F03DBB213700B
:4005C0000837BD4680BD00BF80400040824000408440004086400040884000408A40004000410040900400480043004000420040A14600400801004922420040204200407E
:4006000025420040044000400640004008400040014000400B400040A2430040A1430040A043004080B483B000AF0C4B1B78FB710B4AFB7903F00703DBB21370094AFB7900
:400640001B09DBB21370084B20221A70074B44221A700C37BD465DF8047B7047CF0100496E5800406F580040005B00407658004080B483B000AF0346FB71FB79012B24D8DE
:40068000FA79FB791344FB71FB79124A52F82330FA79104951F822201178FA790E48825C0A43D2B21A70FB790133FB71FB79094A52F82330FA79074951F822201178FA797F
:4006C0000548825C0A43D2B21A700C37BD465DF8047B70474C2F00005C2F000080B483B000AF0346FB71FB79012B28D8FA79FB791344FB71FB79144A52F82330FA7912494B
:4007000051F822201178FA791048825CD243D2B20A40D2B21A70FB790133FB71FB790A4A52F82330FA79084951F822201178FA790648825CD243D2B20A40D2B21A700C37E7
:40074000BD465DF8047B70474C2F00005C2F000080B483B000AF0346FB71FB79012B0ED8FB79094A52F82330FA79074951F822201178FA790548825C0A43D2B21A700C371D
:40078000BD465DF8047B7047602F0000682F000080B483B000AF0346FB71FB79012B10D8FB790A4A52F82330FA79084951F822201178FA790648825CD243D2B20A40D2B2EF
:4007C0001A700C37BD465DF8047B7047602F0000682F000080B586B000AF72B64D4A4D4B1B78DBB243F00403DBB213700023FB7513E0FA7D13465B0013445B00464A134453
:400800003B613B691A683B699B889BB210461946FFF7F6FDFB7D0133FB75FB7D082BE8D90023FB751CE0FA7D13469B0013445B003A4A1344FB60FB681B68BB60FB685B68B3
:400840007B60FB681A7A5B7A1B0213437B807B88B86879681A46FFF7E1FDFB7D0133FB75FB7D002BDFD04FF090402D49FFF7EAFD2C4B0A221A702C480421FFF7C1FD2B486E
:400880000421FFF7BDFD2A4A294B1B78DBB243F00203DBB21370274A264B1B78DBB243F00203DBB21370244A234B1B78DBB243F04003DBB21370214A204B1B78DBB243F01E
:4008C0001003DBB213701E481E490A22FFF7A6FD1D481E490822FFF7A1FD1D4A1C4B1B78DBB243F00803DBB213701A4B60221A70FFF7E2FD174B80221A70174B01221A709A
:40090000FFF790FE15480C490E22FFF787FD1837BD4680BDE84600406C2F0000A42F0000780000488358004000760040087600400350014013500140A0430040C24300407D
:40094000C05100407C0400482251004088040048224300400048004004000840B043004080B582B002AF414B01221A70404B00221A70102000F068FF102001F04BF81D207B
:40098000072101F0EBFA3B4B04221A703A4B00221A703A4B00221A70394A394B1B78DBB243F01803DBB21370364B00221A70364B00221A70354B00221A70354B0A221A7060
:4009C000344B00221A70344B00221A70334B12221A70334B13221A70324B00221A70324B14221A700123009303204FF400414FF40042082300F0B4FB02230093002049F202
:400A0000DA014FF40042102300F0AAFB03230093002049F2DA014FF40042102300F0A0FB04230093002049F2DA014FF40042102300F096FB1D4A0D4B1B78DBB2013B1C49B3
:400A40009B000B449B7813701A4A084B1B78DBB2013B174931F823301380044B1B78DBB2184600F079F9BD4680BD00BF1081FF1FD081FF1F96580040975800409E58004095
:400A8000075B004093580040885B0040895B004080580040815800408358004088580040895800408D580040014E00400E4E0040D481FF1F0C4E004080B582B000AF01F031
:400AC0000EF80346FB71444B1B78BB71434A434B1B78DBB243F00103DBB213703F4A3F4B1B78DBB243F01003DBB213703C4A3C4B1B78DBB243F00103DBB21370384A384B69
:400B00001B78DBB243F01003DBB21370354A354B1B78DBB243F00203DBB21370324A324B1B78DBB243F00203DBB213702F4A2F4B1B78DBB243F00303DBB21370032001F007
:400B4000D3F9284A274B1B78DBB223F00203DBB21370254A244B1B78DBB223F00203DBB21370234A224B1B78DBB243F00603DBB21370204B7A221A701F4A1F4B1B78DBB28D
:400B800043F00103DBB213701C4A1C4B1B78DBB243F00103DBB21370194A194B1B78DBB243F00103DBB21370164A164B1B78DBB243F00103DBB21370134B4FF000521A60FB
:400BC000124B4FF000521A60FB79184600F08BFF0837BD4680BD00BF1081FF1FAA430040BA430040F8460040F9460040915800407758004082580040A1430040B143004043
:400C0000A2430040B243004080E200E000E100E080B500AF084B1B78002B09D1074B1B78DBB2002B01D1FFF79BFE034B01221A70FFF742FF80BD00BFD281FF1FD381FF1F79
:400C400080B400AF054A054B1B78DBB243F00103DBB21370BD465DF8047B7047004E004080B485B000AF0346FB710E4B1B78DBB2002B03D00C4B1B78FB7305E00B4B1B7805
:400C8000DBB203F00103FB73FB7B012B02D0FB79002BEAD0FB7B18461437BD465DF8047B704700BFD181FF1FD081FF1F014E004080B483B000AF124B1B78DBB203F003030F
:400CC000FB71104B1B78DBB2BB71FB79022B02D10D4B1B7804E0FB79032B01D10B4B1B780B4B1B78DBB2002B02D00A4B00221A70BB795BB218460C37BD465DF8047B70475D
:400D0000144E0040104E0040114E0040124E0040D181FF1FD081FF1F80B485B000AF78600B4B1B687A68D31A7B607B684FF47A7202FB03F2074B1B6892FBF3F3FB81FB8996
:400D40001BB218461437BD465DF8047B704700BF0082FF1FFC81FF1F80B582B000AF0346FB71C24B00221A70FB79012B65D1C04B38221A70BF4B04221A70BF4B06221A70B6
:400D8000BE4B00221A70BE4B00221A70BD4B0F221A70BD4B00221A70BC4B00221A70BC4B00221A70BB4B01221A70BB4B14221A70BA4B04221A70BA4B18221A70B94B0022CF
:400DC0001A70B94B11221A70B84B12221A70B84B00221A70B74B01221A70B74B11221A70B64B19221A70B64B97221A70442000F06DFAB44B58221A70B34B00221A70B34B5A
:400E000005221A70B24B02221A70B24B00221A70B14B00221A70002000F046FCAF4B2A221A602420012100F053FC9520012100F035FD1D20AA4901F069F8FB79022B66D1FB
:400E40008B4B38221A708B4B04221A708A4B06221A708A4B00221A70894B00221A70894B3F221A70884B00221A70884B00221A70874B00221A70874B01221A70864B5022AD
:400E80001A70864B27221A70854B2C221A70854B00221A70844B55221A70844B5A221A70834B05221A70834B01221A70824B11221A70824B19221A70814B97221A704420B2
:400EC00000F004FA7F4B58221A707F4B00221A707E4B05221A707E4B02221A707D4B00221A707D4B00221A70002000F0DDFB7B4B4FF47A421A600820012100F0E9FB25205D
:400F0000012100F0CBFC1D20764900F0FFFFFB79032B66D1564B38221A70564B04221A70554B06221A70554B00221A70544B00221A70544B3F221A70534B00221A70534BE4
:400F400000221A70524B00221A70524B01221A70514B50221A70514B27221A70504B2C221A70504B00221A704F4B55221A704F4B5A221A704E4B05221A704E4B01221A70A6
:400F80004D4B11221A704D4B19221A704C4B97221A70442000F09AF94A4B58221A704A4B00221A70494B05221A70494B02221A70484B00221A70484B00221A70002000F0CF
:400FC00073FB464B4FF47A421A600820012100F07FFB2520012100F061FC1D20424900F095FFFB79042B40F0A880214B38221A70204B04221A70204B06221A701F4B0022B6
:401000001A701F4B00221A701E4B3F221A701E4B00221A701D4B00221A701D4B00221A701C4B01221A701C4B50221A701B4B27221A701B4B2C221A701A4B00221A701A4B1B
:4010400055221A70194B5A221A70194B05221A70184B01221A70184B11221A70174B19221A70174B97221A7044203FE0D181FF1F004E0040024E0040034E0040044E0040C0
:40108000054E0040064E0040084E0040094E00400A4E0040144E0040845800408558004086580040875800408A5800408B5800408C5800408E5800408F580040905800404E
:4010C0009158004094580040955800409A5800409B5800409C5800409D580040FC81FF1F45130000511300005D13000000F0EEF8134B58221A70134B00221A70124B052213
:401100001A70124B02221A70114B00221A70114B00221A70002000F0C7FA0F4B4FF47A421A600820012100F0D3FA2520012100F0B5FB1D20094900F0E9FE0837BD4680BD73
:4011400094580040955800409A5800409B5800409C5800409D580040FC81FF1F6913000090B587B000AF0446084611461A462346FB710346BB800B467B801346BB7197F8FE
:401180002830002B00F08A8097F82830042B00F28580FB79013B092B4AD801A252F823F0C91100003112000031120000C91100003112000031120000E3110000FD110000DD
:4011C0003112000017120000BB790F2B04D9364B1B78DBB2FB752EE0344B1B78DBB2FB7529E0BB790F2B04D9314B1B78DBB2FB7521E0304B1B78DBB2FB751CE0BB790F2B34
:4012000004D92D4B1B78DBB2FB7514E02B4B1B78DBB2FB750FE0BB790F2B04D9284B1B78DBB2FB7507E0274B1B78DBB2FB7502E00023FB7500BFBA8897F917305B011344A9
:401240003B617B883A6902FB03F3FB60FB68DB0BBB82BB790D2B11D8BB8ABA79C2F10E021341BB8297F82830013BBA790132D1B2154A9B0013440A469A7007E097F82830B2
:40128000013B114A9B0013440F229A7097F82830013B0D49BA8A21F8232002E0002000F017FE1C37BD4690BD180100491C010049190100491D0100491A0100491E01004949
:4012C0001B0100491F010049D481FF1F80B584B000AF0346FB7100F002FC0346FB73164A154B1B78DBB243F00303DBB21370134A124B1B78DBB243F00303DBB21370104A95
:40130000FB791370032000F0EFFD0B4A0A4B1B78DBB223F00303DBB21370084A074B1B78DBB223F00303DBB21370FB7B184600F0DAFB1037BD4680BDF8460040F9460040BA
:401340009258004080B400AFBD465DF8047B704780B400AFBD465DF8047B704780B400AFBD465DF8047B704780B400AFBD465DF8047B704780B500AF054B1B78002B04D1B8
:4013800000F008F8024B01221A7000F02FF880BDE481FF1F80B500AF00200D4900F0B6FD0020072100F0DAFD0A4B00221A700A4B72221A70094B20221A70094B06221A70C6
:4013C000084B47221A70084B00221A7080BD00BFA1150000E581FF1F896500408B65004029640040396400408864004080B582B000AF00F074FB0346FB71124A114B1B78C9
:40140000DBB243F02003DBB213700F4A0E4B1B78DBB243F01003DBB213700C4B01221A600B4A0B4B1B78DBB243F01003DBB2137000F01AFBFB79184600F055FB0837BD4623
:4014400080BD00BF996500409B65004000E100E09864004080B483B000AF0346FB71044AFB7913700C37BD465DF8047B704700BF8B65004080B483B000AF0023FB71234B12
:4014800001221A60224B1B78BB71224B1B787B71214B1B78DBB2002B03D1BA797B799A4218D0BB791D4AD35CFB71BB790133BB71BB79042B01D90023BB71154ABB79137095
:4014C000154B1B78DBB2002B03D0134B00221A7012E011E0124B1B783B713B7903F02003002B09D00F4B1B78FB713B7903F01E03002B01D00023FB710B4B01221A60FB7904
:4015000018460C37BD465DF8047B704780E100E0E681FF1FE781FF1FE881FF1F0482FF1F6B6500404A65004000E100E080B483B000AF0346FB7100BF074B1B78DBB203F056
:401540000403002BF8D1054AFB7913700C37BD465DF8047B704700BF686400404864004080B584B000AF78600023FB810B4B1B78002B10D009E0FB897A6813441B78184688
:40158000FFF7D4FFFB890133FB81FB897A6813441B78002BEFD11037BD4680BDE481FF1F80B483B000AF0023FB712B4B1B78BB71BB797B71BB7903F01E03002B0BD0BB796D
:4015C00003F01E03DAB2254B1B78DBB21343DBB2DAB2224B1A70BB7903F02003002B30D01F4B1B787B711F4B1B78DBB219461E4A7B7953540123FB71FB79002B21D01B4B85
:401600001B78DBB2002B02D0194B01221A70154B1B78DBB20133DAB2124B1A70114B1B78DBB2042B02D90F4B00221A700D4B1B78DAB2104B1B78DBB29A4202D10B4B0122AF
:401640001A70BB7903F02003002BAED10C37BD465DF8047B704700BF6B650040E581FF1F4A650040E781FF1F0482FF1FE881FF1FE981FF1FE681FF1F80B582B000AF0023E2
:40168000FB7106E0FB791846FFF782F8FB790133FB71FB79012BF5D9024BFF221A700837BD4680BD1181FF1F80B582B000AF0346FB71FFF7E1FFFB791846FFF749F8034AF6
:4016C000FB7913700837BD4680BD00BF1181FF1F80B584B000AF03460A46FB8013467B7100F0CCF80346FB7300F0A2F80346BB81FA88BB899A4200F08780454B1B78DBB2D1
:4017000003F00103FB72FB7B002B20D1BB89002B02D0FB88002B1AD1BB89002B0BD13D4AFB8813803C4A3C4B1B78DBB223F04003DBB2137068E0384A374B1B78DBB243F0BF
:401740004003DBB21370334AFB8813805CE0FB7A002B33D0314B00221A70314B01221A70304B00221A70304A2F4B1B78DBB203F07F03DBB21370284B1B78DBB203F0080302
:40178000002B02D0FB88002B18D1284ABB891380224B07221A7000BF204B1B78DBB203F00103002BF8D11A4A194B1B78DBB223F00103DBB21370194B00221A70144B1B78E6
:4017C000DBB203F00103002B13D0184AFB881380124A7B79002B01D0032300E00123137000BF0E4B1B78DBB203F00103002BF8D10AE0084AFB8813800549054B1B78DAB2B4
:40180000FB7A1343DBB20B701037BD4680BD00BFA24300408040004082400040014000401040004014400040084000400240004080B400AF034B1B889BB21846BD465DF8E2
:40184000047B70478040004080B483B000AF0346FB71094B084A1278D2B2D1B2FA7922F00702D2B20A43D2B2D2B21A700C37BD465DF8047B704700BF8240004080B400AFCA
:40188000054B1B78DBB203F00703DBB21846BD465DF8047B704700BF8240004080B584B000AF03460A46FB8013467B7100F0CCF80346FB7300F0A2F80346BB81FA88BB89D0
:4018C0009A4200F08780454B1B78DBB203F00103FB72FB7B002B20D1BB89002B02D0FB88002B1AD1BB89002B0BD13D4AFB8813803C4A3C4B1B78DBB223F04003DBB213701A
:4019000068E0384A374B1B78DBB243F04003DBB21370334AFB8813805CE0FB7A002B33D0314B00221A70314B01221A70304B00221A70304A2F4B1B78DBB203F07F03DBB2B5
:401940001370284B1B78DBB203F00803002B02D0FB88002B18D1284ABB891380224B07221A7000BF204B1B78DBB203F00103002BF8D11A4A194B1B78DBB223F00103DBB295
:401980001370194B00221A70144B1B78DBB203F00103002B13D0184AFB881380124A7B79002B01D0032300E00123137000BF0E4B1B78DBB203F00103002BF8D10AE0084A40
:4019C000FB8813800549054B1B78DAB2FB7A1343DBB20B701037BD4680BD00BFA14300400041004002410040014000401440004010400040084000400240004080B400AF41
:401A0000034B1B889BB21846BD465DF8047B70470041004080B483B000AF0346FB71094B084A1278D2B2D1B2FA7922F00702D2B20A43D2B2D2B21A700C37BD465DF8047BEE
:401A4000704700BF0241004080B400AF054B1B78DBB203F00703DBB21846BD465DF8047B704700BF0241004080B400AF094A094B1B78DBB243F00203DBB21370064A064BCF
:401A80001B78DBB243F00203DBB21370BD465DF8047B7047A2430040B243004000000000142816D902B4012114381049097811F0C001890904B40E4A515C04BC00BF00BF5E
:401AC00000BF8841FDD500BF00BF02BC704700BF00BF70F10400FCD570470B050709EFF3108072B6704780F31088704700480040DA1A0000AFF3008080B483B000AF134BE9
:401B00007F221A70124B80221A707F23FB710CE0FB79DB0003F1804303F5F043FA79013AD2B21A70FB79013BFB71FB79002BEFD1FB79DB0003F1804303F5F04300221A70B2
:401B40000C37BD465DF8047B704700BF1581FF1F1481FF1F80B485B000AF03460A46FB711346BB710123FB60FB79172B2FD8BB79002B0ED0FB791A01184B1344FA79110185
:401B8000164A0A441278D2B242F02002D2B21A700DE0FB791A01114B1344FA7911010F4A0A441278D2B222F02002D2B21A70FB791A010A4B1344FA791101084A0A44127872
:401BC000D2B242F00102D2B21A700023FB60FB6818461437BD465DF8047B70471070004080B485B000AF03460A46FB711346BB710123FB60FB79172B18D8FB791A010F4B96
:401C000013441B78DBB223F00E03FB72FB791A010A4B1344BA7902F00702D2B25200D1B2FA7A0A43D2B21A700023FB60FB6818461437BD465DF8047B704700BF1070004074
:401C400080B485B000AF0346FB710B46BB8013467B800123FB60BB8841F6FF72934202D14FF40053BB807B8841F6FF72934202D14FF400537B80FB79172B17D8FB79DB00FC
:401C800003F1804303F5EC430433BB60BB68BA881A80FB79DB0003F1804303F5EC430633BB60BB687A881A800023FB60FB6818461437BD465DF8047B704700BF80B485B075
:401CC00000AF03460A46FB711346BB710123FB60FB79172B07D8FB791A01064B1344BA795A720023FB60FB6818461437BD465DF8047B70471070004090B484B000AF044618
:401D0000084611461A462346FB710346BB710B467B7113463B710123FB60FB79172B34D8FB79DB0003F1804303F5EC43BA7902F07F02D1B27A79D201D2B20A43D2B21A70D6
:401D4000FB79DB0003F1804303F5EC433A7E1201D1B23A7902F00F02D2B20A43D2B25A70FB79DB0003F1804303F5EC433A7F02F00F02D2B29A70FB79DB0003F1804303F59E
:401D8000EC430022DA700023FB60FB6818461037BD4690BC704700BF80B582B000AFFF23FB71FFF79CFE0346BB71104B1B78182B12D90F4B1B78FB710C4B1B78013BDAB26D
:401DC0000A4B1A70FB79DB0003F1804303F5F0431B78DAB2064B1A70BB791846FFF783FEFB7918460837BD4680BD00BF1481FF1F1581FF1F90B484B000AF04460846114643
:401E00001A462346FB710346BB800B46BB711346FB700123FB60FB795BB2002B23DBBB8823F47F6323F00F039BB2002B1BD1FB79DB0003F1804303F5F043BB60BB68BA8809
:401E40001A80FB79DB0003F1804303F5F043BA799A70FB79DB0003F1804303F5F043FA78DA700023FB60FB6818461037BD4690BC704700BF80B485B000AF0346FB710B4604
:401E8000BB8013467B800123FB60FB795BB2002B17DBFB79DB0003F1804303F5F0430433BB60BB68BA881A80FB79DB0003F1804303F5F0430633BB60BB687A881A8000238D
:401EC000FB60FB6818461437BD465DF8047B704780B483B000AF0346FB7101BE0C37BD465DF8047B704700BF80B582B000AF0346FB80FB88044A127802FB03F31846FFF757
:401F0000CFFD0837BD4680BD2481FF1F80B584B000AF03463960FB710F4B1B68FB60FB791F2B02D90020FFF7D3FFFB7903F01F0310339B00FA6813441B68BB60FB7903F04F
:401F40001F0310339B00FA6813443A681A60BB6818461037BD4680BD08ED00E080B582B000AF03460A46FB711346BB71BB79072B02D90020FFF7ACFFFB791F2B02D9002054
:401F8000FFF7A6FFFB7903F01F0303F1604303F56443BA795201D2B21A700837BD4680BD80B500AF064B00221A70064B00221A70042000F057F8002000F034F880BD00BF3B
:401FC000285800402958004080B400AF094A094B1B78DBB243F00403DBB21370064A064B1B78DBB243F00403DBB21370BD465DF8047B7047A8430040B843004080B500AF89
:40200000074B1B78002B04D1FFF7CAFF044B01221A70FFF7D9FF642000F044F880BD00BFEB81FF1F80B483B000AF0346FB710C4A0B4B1B78DBB223F00203DBB213700849EC
:40204000074B1B78DAB2FB7903F00203DBB21343DBB20B700C37BD465DF8047B704700BF2858004080B582B000AF0346FB710C4A0B4B1B78DBB223F00C03DBB2137008492E
:40208000074B1B78DAB2FB7903F00C03DBB21343DBB20B7000F016F80837BD4680BD00BF2858004080B483B000AF0346FB71044AFB7913700C37BD465DF8047B704700BFB2
:4020C000825B004080B483B000AF0B4B1B78DBB203F00C039B08DBB20633FB71074AFB7903F1924303F594731B78DBB213700C37BD465DF8047B7047285800400A4600400F
:4021000080B582B000AF786000F03CF8786800F009F8072000F018F800F028F80837BD4680BD00BF80B485B000AF7860054B1B68FB60FB6844337A681A601437BD465DF850
:40214000047B704708ED00E080B483B000AF0346FB71054AFB795B01DBB213700C37BD465DF8047B704700BF01E400E080B400AF034B02221A60BD465DF8047B704700BFE9
:4021800000E100E080B400AF034B02221A60BD465DF8047B704700BF80E100E080B400AF034B02221A60BD465DF8047B704700BF80E200E080B500AF00F040F9022000F084
:4021C00075F9002000F092F9FFF7E6FD03461A46084B1A70FFF7E0FD03461A46064B1A700648192100F038F805484FF47A7100F06BF880BDEF81FF1FF081FF1FB02F000071
:40220000CC2F000080B500AF00F036F9084B1B7818460121FFF79EFC064B1B7818460121FFF798FC002000F081F900F085F880BDED81FF1FEE81FF1F80B500AF054B1B78A8
:40224000002B04D1FFF7B6FF024B01221A70FFF7D9FF80BDEC81FF1F80B582B000AF78600B467B807B681B0C9BB2012001211A464FF4804300F07AF803461A46104B1A70F9
:40228000104B19780F4B1B787A88084611461A460123FFF7AFFD0B4B1A787B689BB21046194645F68332FFF7E5FD054B1A78054B1B7810461946FFF701FD0837BD4680BDF6
:4022C000ED81FF1FEF81FF1F80B582B000AF78600B467B807B681B0C9BB2012001211A464FF4804300F076F803461A46104B1A70104B19780F4B1B787A88084611461A46BE
:402300000123FFF777FD0B4B1A787B689BB21046194645F68332FFF7ADFD054B1A78054B1B7810461946FFF7C9FC0837BD4680BDEE81FF1FF081FF1F80B400AF094A094B58
:402340001B78DBB243F00403DBB21370064A064B1B78DBB243F00403DBB21370BD465DF8047B7047A2430040B243004090B585B002AF0446084611461A462346FB71034668
:40238000BB710B46BB8013467B80114B00221A700F4B1878F979BA7900230093002301930023FFF7A9FC0A4B1978BA887B88084611461A46FFF744FC054B1B781846022185
:4023C000FFF70EFC024B1B7818460C37BD4690BD2C81FF1F90B585B002AF0446084611461A462346FB710346BB710B46BB8013467B80114B01221A700F4B1878F979BA7905
:4024000000230093002301930023FFF775FC0A4B1978BA887B88084611461A46FFF710FC054B1B7818460221FFF7DAFB024B1B7818460C37BD4690BD2D81FF1F80B500AFC3
:402440000A4B00221A700A4B00221A70094A094B1B78DBB243F00803DBB21370002000F045F8022000F022F880BD00BF2C5800402D5800409F5A004080B400AF094A094B84
:402480001B78DBB243F00803DBB21370064A064B1B78DBB243F00803DBB21370BD465DF8047B7047A8430040B843004080B483B000AF0346FB710C4A0B4B1B78DBB223F001
:4024C0000203DBB213700849074B1B78DAB2FB7903F00203DBB21343DBB20B700C37BD465DF8047B704700BF2C58004080B582B000AF0346FB710C4A0B4B1B78DBB223F0B0
:402500000C03DBB213700849074B1B78DAB2FB7903F00C03DBB21343DBB20B7000F016F80837BD4680BD00BF2C58004080B483B000AF0346FB71044AFB7913700C37BD4603
:402540005DF8047B704700BF835B004080B483B000AF0B4B1B78DBB203F00C039B08DBB20633FB71074AFB7903F1924303F59C731B78DBB213700C37BD465DF8047B704787
:402580002C5800400B46004080B582B000AF0023FB7106E0FB791846FEF7A0F8FB790133FB71FB79012BF5D9024BFF221A700837BD4680BD2E81FF1F80B582B000AF0346B7
:4025C000FB71094B1B78FF2B04D0074B1B781846FEF784F8FB791846FEF74AF8024AFB7913700837BD4680BD2E81FF1F80B483B000AF0346FB71044AFB7913700C37BD46E8
:402600005DF8047B704700BF78650040014B1868704700BF9081FF1F0E4B70B51E460E4C0025E41AA410A54204D056F8253098470135F8E700F0DAFE084B094C1E46E41A8B
:40264000A4100025A54204D056F8253098470135F8E770BDF8330000F8330000F83300000034000010B5431E0A44914204D011F8014B03F8014FF8E710BD03460244934282
:4026800002D003F8011BFAE7704700000EB400B54FF402719CB0ADF814106FF00041049107914FF6FF711DABADF81610084953F8042B02900690086802A9019300F064F854
:4026C000029B00221A701CB05DF804EB03B070479081FF1F2DE9F0478E688246B3420C469046994640D38A8912F4906F3AD02568096902236F1A656905EB450595FBF3F57F
:402700007B1C4B449D4238BF1D4653050FD5294600F030FB064698B121693A46FFF7A2FFA38923F4906343F08003A38113E02A4600F076FB064670B95046216900F0D6FA15
:402740000C23CAF80030A3894FF0FF3043F04003A381BDE8F08726613E4426604E466561ED1BA560B14500D24E4632462068414600F0A0FAA36800209B1BA36023681E44B4
:402780002660BDE8F08700002DE9F0439DB003938B8906461C060D4690460CD50B6953B9402100F0E7FA2860286110B90C233360CCE040236B610023099320238DF82930B6
:4027C00030238DF82A3043461C4613F8012B1AB9B4EB08090FD002E0252AF5D1F8E73046294642464B46FFF775FF013000F0A980099B4B4409932378002B00F0A2800023D1
:402800004FF0FF3204930793059206938DF853301A9304F101084446DFF8489121784846052200F039FA08F10108049B30B1C9EB00000122824013430493ECE7D80644BFAD
:4028400020228DF85320190744BF2B228DF8532022782A2A02D0079923460EE0039A0134111D12680391002ABBBF524243F0020307920792B8BF04930AE01C462278013327
:40288000303A092A03D80A2000FB0121F5E7079123782E2B1AD163782A2B0AD1039B02341A1D1B680392002BB8BF4FF0FF3305930CE0611C00220C4623780131303B092BE4
:4028C00003D80A2000FB0232F5E70592DFF8988021784046032200F0DFF938B1049AC8EB00004023834013430493013421781A48062204F101088DF8281000F0CDF988B1E7
:40290000164B33B9039B073323F007030833039313E003AB0093304604A92A46104BAFF3008007E003AB0093304604A92A460C4B00F092F8421C074603D0099B3B44099377
:4029400041E7AB895B0601D4099801E04FF0FF301DB0BDE8F08300BFC033000000000000D5260000B6330000BC3300002DE9F84391461F468A680B6906469342B8BF134687
:40298000C9F8003091F843200C46DDF8208012B10133C9F800302368990642BFD9F800300233C9F80030256815F006051CD094F843302268003318BF012392061FD5E11874
:4029C000302081F843005A1C94F845102244023382F8431013E03046394604F119020123C047013007D00135E368D9F800209B1A9D42F0DBDBE74FF0FF30BDE8F88330464A
:402A0000394604F14302C0470130F4D02268D9F80050E36802F00602042A08BF5D1B2269A3680CBF25EAE57500259342C4BF9B1AED184FF00009A9450ADA3046394604F17F
:402A40001A020123C0470130D5D009F10109F2E70020BDE8F88300002DE9FF410C461746227E98466E2A06460A9B01F1430100F0B08012D8632A23D00AD8002A00F0BD8017
:402A8000582A40F0CC8084F84520DFF804E257E0642A1ED0692A1CD0C1E0732A00F0B18009D86F2A2ED0702A40F0B980226842F0200222603FE0752A24D0782A3BD0AEE021
:402AC0001A6804F14205111D1960136884F84230A9E020681A6810F0800F02D0101D186008E010F0400F02F10400186002D0B2F9003000E01368002B3EDA2D225B4284F816
:402B0000432039E020681A6810F0800F02D0101D186007E010F0400F02F10400186001D0138800E01368227EDFF864E16F2A0CBF08220A221CE07822DFF858E184F84520A0
:402B40002268186812F0800F00F104051D6003D1550601D5038800E00368D00744BF42F0200222601BB9226822F0200222601022002084F8430002E0DFF814E10A226568EC
:402B8000002DA8BF2068A560A4BF20F00400206003B965B10D46B3FBF2F002FB10331EF8033005F8013D03460028F4D100E00D46082A0BD12368DA0708D5236962689A4292
:402BC000DEBF302305F8013C05F1FF35491B21612EE025681A6815F0800F606903D0151D1D60136808E015F0400F02F104051D60136801D0188000E01860002323610D4639
:402C000016E01A68111D1960156800212846626800F042F808B1401B6060636804E004F1420584F8422001232361002384F84330CDF800803046214603AA3B46FFF796FE44
:402C4000013002D14FF0FF301FE0304639462A462369C0470130F5D023689B0705D4E068039B9842B8BF18460FE00025E368039A9B1A9D42F3DA3046394604F119020123D4
:402C8000C0470130DED00135F0E704B0BDE8F081C7330000D833000010B5C9B202449042034605D01C7801308C42F8D1184610BD002010BD814210B501EB020301D3421EBB
:402CC0000BE09842FBD28118D21AD34204D013F8014D01F8014DF8E710BD994204D011F8014B02F8014FF8E710BD000030B500293CD051F8042C0B1F1D49002AB8BF9B1817
:402D00000A680C4612B95A600B6030BD93420DD219685818904201BF5A5852181A60426823605A6030BD994203D80A4651680029F9D1146815199D420AD11B682344D01869
:402D40008842136012D10868034413604B680CE002D90C23036030BD1C681819884201BF08684968001918605960536030BD00BFF881FF1F70B5CC1C24F0030408340C2CD4
:402D800038BF0C24002C064603DA0C233360002070BD8C42F9D3204A136810461946A1B10A68121B0ED40B2A03D90A608B188C501FE08B420BBF5A684A6802605A6018BF8A
:402DC0000B4616E00B464968E9E7144D2B681BB9304600F04BF828603046214600F046F8421C0346D1D0C51C25F0030585420AD11C6003F10B001A1D20F00700821A0AD08F
:402E00005142995070BD3046E91A00F02FF80130BBD02B46ECE770BDF881FF1FF481FF1FF8B5074615460E4621B91146BDE8F840FFF7A0BF1AB9FFF759FF2846F8BD00F0C2
:402E400025F8A8420ED238462946FFF793FF044650B131462A46FFF705FC38463146FFF745FF01E03046F8BD2046F8BD38B5064C0023054608462360FDF706FA431C02D1D3
:402E8000236803B12B6038BD0C82FF1F51F8040C0028BEBF091851F8043CC0180438704700000000546869732069732064616353746174653A2025640D0A000053696E67CC
:402EC0006C652041444320526561643A20256C750D0A0000546869732069732077617665466F726D3A2025640D0A0000496E76616C696420636F6D6D616E64210D0A000013
:402F0000434F4D20506F7274204F70656E0D0A00496E697469616C697A656420726561643A20256C75206D560D0A0000436F6E74696E756F75732041444320526561643AA3
:402F400020256C75206D560D0A000000905A004024430040985A0040585B004020002020035B00402443004040000000005100402000305100404000F05100401000000013
:402F800001400010001401400006801A0140800100400140000A004C014000020050014020000000001A0140FC03004880000000809FBCD5E9F6FCFAF1E0C9AE8F705136C9
:402FC0001F0E050309162A43600000007D7D7D7D7E7E7E7E7E7E7F7F7F7F7F7F8080808080808081818181818182828282828282838383838383848484848484848585857D
:4030000085858585868686868686868787878787878888888888888888898989898989898A8A8A8A8A8A8A8B8B8B8B8B8B8B8B8C8C8C8C8C8C8C8C8D8D8D8D8D8D8D8D8E35
:403040008E8E8E8E8E8E8E8E8F8F8F8F8F8F8F8F8F90909090909090909090919191919191919191919192929292929292929292929393939393939393939393939393941A
:4030800094949494949494949494949494949495959595959595959595959595959595959595959595959596969696969696969696969696969696969696969696969696C6
:4030C000969696969696969696969696969696969696969696969696969696969696969696969696969695959595959595959595959595959595959595959595959594946C
:403100009494949494949494949494949494939393939393939393939393939392929292929292929292929191919191919191919191909090909090909090908F8F8F8F10
:403140008F8F8F8F8F8E8E8E8E8E8E8E8E8E8D8D8D8D8D8D8D8D8C8C8C8C8C8C8C8C8B8B8B8B8B8B8B8B8A8A8A8A8A8A8A8989898989898988888888888888888787878785
:40318000878786868686868686858585858585858484848484848483838383838382828282828282818181818181808080808080807F7F7F7F7F7F7E7E7E7E7E7E7D7D7D8D
:4031C0007D7D7D7D7C7C7C7C7C7C7B7B7B7B7B7B7A7A7A7A7A7A7A7979797979797878787878787877777777777776767676767676757575757575757474747474747473C7
:403200007373737373727272727272727271717171717171707070707070706F6F6F6F6F6F6F6F6E6E6E6E6E6E6E6E6D6D6D6D6D6D6D6D6C6C6C6C6C6C6C6C6C6B6B6B6BD0
:403240006B6B6B6B6B6A6A6A6A6A6A6A6A6A6A6969696969696969696969686868686868686868686867676767676767676767676767676666666666666666666666666648
:4032800066666665656565656565656565656565656565656565656565656564646464646464646464646464646464646464646464646464646464646464646464646464F0
:4032C000646464646464646464646464646464646464646464646464646465656565656565656565656565656565656565656565656566666666666666666666666666669A
:4033000066666767676767676767676767676767686868686868686868686869696969696969696969696A6A6A6A6A6A6A6A6A6A6B6B6B6B6B6B6B6B6B6C6C6C6C6C6C6C49
:403340006C6C6D6D6D6D6D6D6D6D6E6E6E6E6E6E6E6E6F6F6F6F6F6F6F6F707070707070707171717171717172727272727272727373737373737474747474747475757531
:403380007575757576767676767676777777777777787878787878787979797979797A7A7A7A7A7A7A7B7B7B7B7B7B7C7C7C7C7C7C7D7D7D4300232D302B2000686C4C0052
:4033C0006566674546470030313233343536373839414243444546003031323334353637383961626364656600000000F8B500BFF8BC08BC9E4670474D0000007103000085
:40340000F8B500BFF8BC08BC9E46704729000000203400000881FF1F9000000078000000000000001082FF1F01FF0000807F00000300000000366E01C05D00001800000055
:403440000000E02EFFFFFF000000000000000000000000000000000000000000000000000000000000000000B433000000000000000000000000000000000000000000005A
:40348000000000000000000000000000000000000000000000000000000000000000000000000000000000003081FF1F00000000000000000000000000000000000000003D
:4034C00000000000000000000000000000000000000000000000000000000000000000000000000000000000000000000000000000000000000000000000000000000000CC
:40350000000000000000000000000000000000000000000000000000000000000000000000000000000000000000000000000000000000000000000000000000000000008B
:40354000000000000000000000000000000000000000000000000000000000000000000000000000000000000000000000000000000000000000000000000000000000004B
:40358000000000000000000000000000000000000000000000000000000000000000000000000000000000000000000000000000000000000000000000000000000000000B
:020000040003F7
:0200000480007A
:4000000002520040015A00400164004002650040010501405F08014037090140040B0140040C0140010D01400215014001170140431801403C190140171A0140481B0140EC
:4000400006400140024101400442014003430140024401400345014007460140024701400848014006490140034C0140074D01400450014002510140618064409F01880F14
:4000800089728B38E0020002060207200A020C010D0C0F10110D1310150D173019281B112202240229022B14300233033401353C39083B203E1140364101460C47EB4834A2
:4000C00049FF4AFF4BFF4EF04F44500C5401580459045A045B045C105D115F0166C06A406B028040822084E087018A1C8C808E209203942096C0980199039A16A01CA10324
:40010000A203A608A8E0A902AC01AE0EB01AB2E0B40FB503B920BA22BF10C002C640C9FFCA07CBFFCC40CD20CEF0CF05D008D804D904DA04DB04DC01DD01DF01E040E1A82D
:40014000E240E3200040010402080380040805120602070209210A2010201110128116401704188019121A201E88200425242608271429122A012F08312035123704380882
:400180003D083E804004460147044C0450245110530856CA5E885F126A808C048D019680C0FFC20EC43FCA25CCE4CE52D054D220D6F08240B440E002E40138023E015804D2
:4001C0005F011C40E602EE06E4010020024004090610081C0A020C0C0E1112031301166018102410260C2814301F3101322034403E14580459045B045C215F018110840189
:40020000850C8801890C8C1C8D088E028F04901E94129510960C9A129C0C9E12A008A110A404A504A70AA80CA910AC01AD01B00EB10CB21CB310B401B502B701BA02BF44FE
:40024000D602D712D804D904DB04DC11DD10DF010028020104800510075008460A040D100E400F20108213141608170419011A941B041E401F2A2044220423012740286439
:4002800029212B0231043701384039163A015A08681669146F017080731483119080912092209440951499109A089B14A780B240B310B510B680C0F7C27FC46FCA0FCC826D
:4002C000CE0FD602E001E4018F029301950199019A019F02A601AF01B001B101B302B902BA08BE01BF04D418D604D804D904DB04DC11DD10DF010242032009800AE40F0877
:400300001088114012101314150819221B201D041F0120012103220225082780280229212A082E4030883102321035243602378038463A503C804001421C45084620484053
:4003400049204A0151045D026620674280028184820187408C218D408F80904492B49314950299019C229D24A080A304A780AB20AF08C00DC24FC42FCA1FCCFFCE1FD00E5B
:40038000D20CD680D8B0322036203B023F40CC30CE609742A62087019742A620E04097429F01A6207C20DE0152209C20D404450882208508A620B420D001E8023340CC0835
:4003C00025012701810197429F01A620C8A0E4808620A620AB01AF40E640EE60821083409F40128072108E809210C408DC01E20200020C0210061C06000F100A221000027D
:4004000033000C10002000000C0033020F70300833600000000033013F400000087000040400000C0C1C0060117C0000307C00000F000003000020020000004062050300E4
:4004400001E0000C12FFFFFF62A0F0410C0000000000000004040400110100010000000000004002001030100010101200000000000000000000000000000000800040801E
:400480008000800000000000000202000200000095001801000000000000000000000000000000000000000000000000000000000000000000000000000000000000000088
:4004C00000000000000000000000000000000000000000000000000000000000000000000000000000000000000000000000000000000000000000000000000000000000FC
:4005000000000000000000000000000000000000000000000000000000000000000000000000000000000000000000000000000000000000000000000000000000000000BB
:40054000000000000000000000000000000000000000000000000000000000000000000000000000000000000000000000000000000000000000000000000000000000007B
:40058000000000000000000000000000000000000000000000000000000000000000000000000000000000000000000000000000000000000000000000000000000000003B
:0200000490006A
:0400000000004005B7
:0200000490105A
:04000000BC90ACAF55
:0200000490303A
:0200000027C314
:0200000490402A
:4000000000000000000000000000000000000000000000000000000000000000000000000000000000000000000000000000000000000000000000000000000000000000C0
:400040000000000000000000000000000000000000000000000000000000000000000000000000000000000000000000000000000000000000000000000000000000000080
:400080000000000000000000000000000000000000000000000000000000000000000000000000000000000000000000000000000000000000000000000000000000000040
:4000C0000000000000000000000000000000000000000000000000000000000000000000000000000000000000000000000000000000000000000000000000000000000000
:0200000490501A
:0C00000000012E16106900012E2B382C78
:00000001FF