:400000000080002011000000410500004105000080B500AF024A034B1B68136000F0BCFABC760040FA46004010B5054C237833B9044B13B10448AFF300800123237010BDD5
:400040009881FF1F0000000058330000084B10B51BB108480849AFF300800848036803B910BD074B002BFBD0BDE81040184700BF00000000583300009C81FF1F0881FF1F0B
:400080000000000080B582B000AF02F03FFC00237B600837BD4680BD80B582B000AF02F0E9F801F003FB03461A46B94B1A70B84B1B78B848B8491A4602F044FDB54801F059
:4000C0006BFB0023FB71B24B1B78782B00F2408101A252F823F000BF5D03000051030000510300005103000051030000510300005103000051030000510300005103000012
:40010000510300005103000051030000510300005103000051030000510300005103000051030000510300005103000051030000510300005103000051030000510300007F
:40014000510300005103000051030000510300005103000051030000510300005103000051030000510300005103000051030000510300005103000051030000510300003F
:4001800051030000510300005103000051030000510300005103000051030000510300005103000051030000510300005103000051030000510300005103000051030000FF
:4001C00051030000510300005103000051030000510300005103000051030000510300005103000023030000510300005103000051030000510300004703000051030000F7
:400200005103000051030000330300005103000051030000510300005103000051030000EB020000BD0200005103000051030000510300003D0300002B03000051030000D2
:400240005103000051030000510300005103000051030000510300005103000051030000510300002303000051030000510300005103000051030000470300005103000076
:400280005103000051030000330300005103000051030000510300005103000051030000EB020000BD0200005103000051030000510300003D0300002B030000374B012201
:4002C0001A70374B00221A60364B00221A60364B00221A60334B1B682E4834491A4602F031FC2C4801F058FA39E0012000F0D4FD0346002B14D000F0F7FD0346184600F024
:4003000027FE03461A462A4B1A60294B1B68214828491A4602F016FC1E4801F03DFA1EE01DE0254B01221A7019E0234B00221A7015E04FF4967000F0E9F810E04FF416704A
:4003400000F0E4F80BE04DF2D86000F0DFF806E00123FB71194801F01FFA00E000BFFB79002B11D00D4B1B78002B0DD0084B1B78303B3B603A6813461B019B1A184600F08F
:400380009DF8064B00221A700837BD4680BD00BFB481FF1FC081FF1F5C330000BF81FF1FD081FF1FD481FF1FD881FF1F78330000B881FF1F9C330000BC81FF1FB433000062
:4003C00080B500AF012001214FF4804241F6FF7302F01AFA03461A462E4B1A7001F0F8FD03461A462C4B1A702B4B1A782A4B1B7810464FF480611A46062301F017FE264B5C
:400400001A78264B9BB2104644F610611A4601F04DFE204B1A78204B1B781046194601F069FD1C4B1B781846012101F0AFFC1C4801F0D2FE1B4802F01BFA62B602F072FAAD
:4004400002F01EF900F000FD01F0B0F8202001F01DF901F05DFF00F00FFD134B1B78184602F0FEF8114801F097F900F03DFD0346184600F06DFD03461A460D4B1A600C4B4F
:400480001B680C480C491A4602F05CFB094801F083F9FEE70982FF1F0882FF1F0C82FF1F9900000085000000BE81FF1FC8330000B881FF1FC081FF1FD833000080B584B027
:4004C00000AF78607A6813461B029B1A0C4A82FB03121A441212DB17D31AFB60FB68DBB2184602F059F907480749FA6802F02AFB044801F051F9002318461037BD4680BD8B
:40050000B7600BB6C081FF1FF433000080B582B000AF7860084809497A6802F013FB064801F03AF97B689BB2184602F093FA002318460837BD4680BDC081FF1F1C340000BD
:4005400080B400AFFEE700BF80B584B000AF78600F4B1A687B6813441A460E4BD31A802B09DC0B4B1B68FB60094B1A687B681344074A136007E002F0A5FA02460C2313604E
:400580004FF0FF33FB60FB6818461037BD4680BD0C81FF1F2092FF1F80B586B000AF224B7B61224B3B61204B7B6135E03B691B68FB603B695B68BB603B699B683B6000237B
:4005C0007B600CE0FB681A68BB681A60BB680433BB60FB680433FB607B6804337B607A683B689A42EED13B69DB683B6000237B6008E0BB6800221A60BB680433BB607B68B4
:4006000004337B607A683B689A42F2D13B6910333B617B69013B7B617B69002BC6D102F057FAFFF7CDFEFEE701000000E838000080B582B000AF184B184A1A60184A184B3B
:400640001B6843F40073136000237B600FE07B68032B04D8134A7B6852F8233000E0124B12497A6841F822307B6801337B607B682F2BECD90E4B1B78DAB20E4B1A700E4B76
:400680000A4A1A6000F0B0F901F052FB0B4B00221A600837BD4680BD0CED00E00004FA0514ED00E000000000410500000080FF1FBC7600400481FF1F08ED00E00081FF1FFA
:4006C00080B582B000AF78603960786800213A6802F02FFA0837BD4680BD00BF80B584B000AFF860B9607A60F868B9687A6802F015FA1037BD4680BD80B483B000AF0346CA
:40070000FB71FEE780B487B000AF7860396000233B6100237B6127E07B699B007A6813441B68BB60BB68FB73BB6823F0FF03BB6014E03B695B003A6813441B781A46BB68DC
:40074000134419463B695B003A6813445B780B703B6901333B61FB7B013BFB73FB7B002BE7D17B6901337B617B691E2BD4D91C37BD465DF8047B704780B582B000AF484B38
:4007800000221A80474B50221A70474B05221A80464B18221A70464B19221A80454B18221A70454BEF221A80444B18221A70444B40F6B7321A80434B18221A70424843494F
:4007C0000422FFF78BFF424B02221A704FF0402308221A703F4B03221A703F4B3F4A1278D2B21A703E4B08221A803E4B41F251221A800023FB7019237B6014E0FB785B0061
:40080000DAB2394B1B78DBB203F00103DBB21343DBB203F00303FB704FF4F07001F05CFA7B68013B7B607B68002B02D0FB78032BE4D17B68002B02D10320FFF75DFF2B4BD7
:400840004FF480721A80294B07221A70284B00221A70284B48221A70244B00221A70264B02221A70254B04221A70254A244B1B78DBB243F01F03DBB21370224A214B1B78D4
:40088000DBB243F00103DBB213701F4A1E4B1B78DBB263F07F03DBB213700837BD4680BD80400040824000408440004086400040884000408A4000408C4000408E400040D6
:4008C000904000409240004000410040F00500480043004000420040A146004008010049224200402042004025420040044000400640004008400040014000400B4000400F
:40090000A2430040A1430040A043004080B483B000AF0E4B1B78FB710D4AFB7903F00703DBB213700B4AFB791B09DBB213700A4B10221A70094B10221A70094B44221A70A3
:400940000C37BD465DF8047B704700BFCF0100496E5800406F580040905A0040005B00407658004080B483B000AF0346FB71FB79012B0ED8FB79094A52F82330FA79074976
:4009800051F822201178FA790548825C0A43D2B21A700C37BD465DF8047B7047383400004034000080B483B000AF0346FB71FB79012B10D8FB790A4A52F82330FA790849FD
:4009C00051F822201178FA790648825CD243D2B20A40D2B21A700C37BD465DF8047B7047383400004034000080B586B000AF72B6524A524B1B78DBB243F00403DBB21370BD
:400A00000023FB7513E0FA7D13465B0013445B004B4A13443B613B691A683B699B889BB210461946FFF74CFEFB7D0133FB75FB7D082BE8D90023FB751CE0FA7D13469B001A
:400A400013445B003F4A1344FB60FB681B68BB60FB685B687B60FB681A7A5B7A1B0213437B807B88B86879681A46FFF737FEFB7D0133FB75FB7D002BDFD04FF090403249C6
:400A8000FFF740FE314B0A221A7031480421FFF717FE304830490422FFF720FE2F480421FFF70EFE2E4A2E4B1B78DBB243F00203DBB213702B4A2B4B1B78DBB243F00203C2
:400AC000DBB21370284A284B1B78DBB243F04003DBB21370254A254B1B78DBB243F01003DBB21370224823490A22FFF7F7FD224822490822FFF7F2FD214822490822FFF742
:400B0000EDFD214A204B1B78DBB243F00803DBB213701E4B60221A70FFF72EFE1B4B80221A701B4B01221A70FFF7F0FE19480E490E22FFF7D3FD1837BD4680BDE8460040BC
:400B4000443400007C3400007C000048835800400076004050760040F4050048087600400350014013500140A0430040C2430040C0510040D405004812510040E0050048D1
:400B800022510040E8050048224300400048004004000840B043004080B582B002AF414B01221A70404B00221A70102000F068FF102001F04BF81D20072101F0EBFA3B4B6D
:400BC00004221A703A4B00221A703A4B00221A70394A394B1B78DBB243F01803DBB21370364B00221A70364B00221A70354B00221A70354B0A221A70344B00221A70344BF8
:400C000000221A70334B12221A70334B13221A70324B00221A70324B14221A700123009303204FF400414FF40042082300F0B4FB02230093002049F2DA014FF400421023D6
:400C400000F0AAFB03230093002049F2DA014FF40042102300F0A0FB04230093002049F2DA014FF40042102300F096FB1D4A0D4B1B78DBB2013B1C499B000B449B78137084
:400C80001A4A084B1B78DBB2013B174931F823301380044B1B78DBB2184600F079F9BD4680BD00BF1081FF1FDC81FF1F96580040975800409E580040075B004093580040FA
:400CC000885B0040895B004080580040815800408358004088580040895800408D580040014E00400E4E0040E081FF1F0C4E004080B582B000AF01F00EF80346FB71444B66
:400D00001B78BB71434A434B1B78DBB243F00103DBB213703F4A3F4B1B78DBB243F01003DBB213703C4A3C4B1B78DBB243F00103DBB21370384A384B1B78DBB243F010030A
:400D4000DBB21370354A354B1B78DBB243F00203DBB21370324A324B1B78DBB243F00203DBB213702F4A2F4B1B78DBB243F00303DBB21370032001F0D3F9284A274B1B78E8
:400D8000DBB223F00203DBB21370254A244B1B78DBB223F00203DBB21370234A224B1B78DBB243F00603DBB21370204B7A221A701F4A1F4B1B78DBB243F00103DBB2137047
:400DC0001C4A1C4B1B78DBB243F00103DBB21370194A194B1B78DBB243F00103DBB21370164A164B1B78DBB243F00103DBB21370134B4FF000521A60124B4FF000521A6098
:400E0000FB79184600F08BFF0837BD4680BD00BF1081FF1FAA430040BA430040F8460040F9460040915800407758004082580040A1430040B1430040A2430040B24300400E
:400E400080E200E000E100E080B500AF084B1B78002B09D1074B1B78DBB2002B01D1FFF79BFE034B01221A70FFF742FF80BD00BFDE81FF1FDF81FF1F80B400AF054A054BF7
:400E80001B78DBB243F00103DBB21370BD465DF8047B7047004E004080B485B000AF0346FB710E4B1B78DBB2002B03D00C4B1B78FB7305E00B4B1B78DBB203F00103FB7353
:400EC000FB7B012B02D0FB79002BEAD0FB7B18461437BD465DF8047B704700BFDD81FF1FDC81FF1F014E004080B483B000AF124B1B78DBB203F00303FB71104B1B78DBB2C0
:400F0000BB71FB79022B02D10D4B1B7804E0FB79032B01D10B4B1B780B4B1B78DBB2002B02D00A4B00221A70BB795BB218460C37BD465DF8047B7047144E0040104E0040C1
:400F4000114E0040124E0040DD81FF1FDC81FF1F80B485B000AF78600B4B1B687A68D31A7B607B684FF47A7202FB03F2074B1B6892FBF3F3FB81FB891BB218461437BD4603
:400F80005DF8047B704700BF1092FF1F0C92FF1F80B582B000AF0346FB71C24B00221A70FB79012B65D1C04B38221A70BF4B04221A70BF4B06221A70BE4B00221A70BE4BEE
:400FC00000221A70BD4B0F221A70BD4B00221A70BC4B00221A70BC4B00221A70BB4B01221A70BB4B14221A70BA4B04221A70BA4B18221A70B94B00221A70B94B11221A7000
:40100000B84B12221A70B84B00221A70B74B01221A70B74B11221A70B64B19221A70B64B97221A70442000F06DFAB44B58221A70B34B00221A70B34B05221A70B24B022290
:401040001A70B24B00221A70B14B00221A70002000F046FCAF4B2A221A602420012100F053FC9520012100F035FD1D20AA4901F069F8FB79022B66D18B4B38221A708B4BFB
:4010800004221A708A4B06221A708A4B00221A70894B00221A70894B3F221A70884B00221A70884B00221A70874B00221A70874B01221A70864B50221A70864B27221A70CD
:4010C000854B2C221A70854B00221A70844B55221A70844B5A221A70834B05221A70834B01221A70824B11221A70824B19221A70814B97221A70442000F004FA7F4B58226C
:401100001A707F4B00221A707E4B05221A707E4B02221A707D4B00221A707D4B00221A70002000F0DDFB7B4B4FF47A421A600820012100F0E9FB2520012100F0CBFC1D2036
:40114000764900F0FFFFFB79032B66D1564B38221A70564B04221A70554B06221A70554B00221A70544B00221A70544B3F221A70534B00221A70534B00221A70524B00224D
:401180001A70524B01221A70514B50221A70514B27221A70504B2C221A70504B00221A704F4B55221A704F4B5A221A704E4B05221A704E4B01221A704D4B11221A704D4BE2
:4011C00019221A704C4B97221A70442000F09AF94A4B58221A704A4B00221A70494B05221A70494B02221A70484B00221A70484B00221A70002000F073FB464B4FF47A427C
:401200001A600820012100F07FFB2520012100F061FC1D20424900F095FFFB79042B40F0A880214B38221A70204B04221A70204B06221A701F4B00221A701F4B00221A70D1
:401240001E4B3F221A701E4B00221A701D4B00221A701D4B00221A701C4B01221A701C4B50221A701B4B27221A701B4B2C221A701A4B00221A701A4B55221A70194B5A2298
:401280001A70194B05221A70184B01221A70184B11221A70174B19221A70174B97221A7044203FE0DD81FF1F004E0040024E0040034E0040044E0040054E0040064E00402C
:4012C000084E0040094E00400A4E0040144E0040845800408558004086580040875800408A5800408B5800408C5800408E5800408F580040905800409158004094580040DE
:40130000955800409A5800409B5800409C5800409D5800400C92FF1F7D150000891500009515000000F0EEF8134B58221A70134B00221A70124B05221A70124B02221A70C1
:40134000114B00221A70114B00221A70002000F0C7FA0F4B4FF47A421A600820012100F0D3FA2520012100F0B5FB1D20094900F0E9FE0837BD4680BD94580040955800406D
:401380009A5800409B5800409C5800409D5800400C92FF1FA115000090B587B000AF0446084611461A462346FB710346BB800B467B801346BB7197F82830002B00F08A803D
:4013C00097F82830042B00F28580FB79013B092B4AD801A252F823F00114000069140000691400000114000069140000691400001B14000035140000691400004F14000064
:40140000BB790F2B04D9364B1B78DBB2FB752EE0344B1B78DBB2FB7529E0BB790F2B04D9314B1B78DBB2FB7521E0304B1B78DBB2FB751CE0BB790F2B04D92D4B1B78DBB2E8
:40144000FB7514E02B4B1B78DBB2FB750FE0BB790F2B04D9284B1B78DBB2FB7507E0274B1B78DBB2FB7502E00023FB7500BFBA8897F917305B0113443B617B883A6902FB9D
:4014800003F3FB60FB68DB0BBB82BB790D2B11D8BB8ABA79C2F10E021341BB8297F82830013BBA790132D1B2154A9B0013440A469A7007E097F82830013B114A9B00134426
:4014C0000F229A7097F82830013B0D49BA8A21F8232002E0002000F017FE1C37BD4690BD180100491C010049190100491D0100491A0100491E0100491B0100491F010049C2
:40150000E081FF1F80B584B000AF0346FB7100F002FC0346FB73164A154B1B78DBB243F00303DBB21370134A124B1B78DBB243F00303DBB21370104AFB791370032000F00A
:40154000EFFD0B4A0A4B1B78DBB223F00303DBB21370084A074B1B78DBB223F00303DBB21370FB7B184600F0DAFB1037BD4680BDF8460040F94600409258004080B400AF75
:40158000BD465DF8047B704780B400AFBD465DF8047B704780B400AFBD465DF8047B704780B400AFBD465DF8047B704780B500AF054B1B78002B04D100F008F8024B012223
:4015C0001A7000F02FF880BDF081FF1F80B500AF00200D4900F0B6FD0020072100F0DAFD0A4B00221A700A4B72221A70094B20221A70094B06221A70084B47221A70084B3F
:4016000000221A7080BD00BFD9170000F181FF1F8B6500408865004029640040396400408864004080B582B000AF00F074FB0346FB71124A114B1B78DBB243F02003DBB26A
:4016400013700F4A0E4B1B78DBB243F01003DBB213700C4B01221A600B4A0B4B1B78DBB243F01003DBB2137000F01AFBFB79184600F055FB0837BD4680BD00BF9B65004015
:401680009865004000E100E09864004080B483B000AF0346FB71044AFB7913700C37BD465DF8047B704700BF8865004080B483B000AF0023FB71234B01221A60224B1B7873
:4016C000BB71224B1B787B71214B1B78DBB2002B03D1BA797B799A4218D0BB791D4AD35CFB71BB790133BB71BB79042B01D90023BB71154ABB791370154B1B78DBB2002B45
:4017000003D0134B00221A7012E011E0124B1B783B713B7903F02003002B09D00F4B1B78FB713B7903F01E03002B01D00023FB710B4B01221A60FB7918460C37BD465DF873
:40174000047B704780E100E0F281FF1FF381FF1FF481FF1F1492FF1F686500404B65004000E100E080B483B000AF0346FB7100BF074B1B78DBB203F00403002BF8D1054A81
:40178000FB7913700C37BD465DF8047B704700BF686400404864004080B584B000AF78600023FB810B4B1B78002B10D009E0FB897A6813441B781846FFF7D4FFFB8901330F
:4017C000FB81FB897A6813441B78002BEFD11037BD4680BDF081FF1F80B483B000AF0023FB712B4B1B78BB71BB797B71BB7903F01E03002B0BD0BB7903F01E03DAB2254B90
:401800001B78DBB21343DBB2DAB2224B1A70BB7903F02003002B30D01F4B1B787B711F4B1B78DBB219461E4A7B7953540123FB71FB79002B21D01B4B1B78DBB2002B02D035
:40184000194B01221A70154B1B78DBB20133DAB2124B1A70114B1B78DBB2042B02D90F4B00221A700D4B1B78DAB2104B1B78DBB29A4202D10B4B01221A70BB7903F02003B6
:40188000002BAED10C37BD465DF8047B704700BF68650040F181FF1F4B650040F381FF1F1492FF1FF481FF1FF581FF1FF281FF1F80B582B000AF0023FB7106E0FB791846F6
:4018C000FFF770F8FB790133FB71FB79012BF5D9024BFF221A700837BD4680BD1181FF1F80B582B000AF0346FB71FFF7E1FFFB791846FFF737F8034AFB7913700837BD46C3
:4019000080BD00BF1181FF1F80B584B000AF03460A46FB8013467B7100F0CCF80346FB7300F0A2F80346BB81FA88BB899A4200F08780454B1B78DBB203F00103FB72FB7BED
:40194000002B20D1BB89002B02D0FB88002B1AD1BB89002B0BD13D4AFB8813803C4A3C4B1B78DBB223F04003DBB2137068E0384A374B1B78DBB243F04003DBB21370334A87
:40198000FB8813805CE0FB7A002B33D0314B00221A70314B01221A70304B00221A70304A2F4B1B78DBB203F07F03DBB21370284B1B78DBB203F00803002B02D0FB88002BE5
:4019C00018D1284ABB891380224B07221A7000BF204B1B78DBB203F00103002BF8D11A4A194B1B78DBB223F00103DBB21370194B00221A70144B1B78DBB203F00103002BA0
:401A000013D0184AFB881380124A7B79002B01D0032300E00123137000BF0E4B1B78DBB203F00103002BF8D10AE0084AFB8813800549054B1B78DAB2FB7A1343DBB20B704D
:401A40001037BD4680BD00BFA24300408040004082400040014000401040004014400040084000400240004080B400AF034B1B889BB21846BD465DF8047B7047804000403D
:401A800080B483B000AF0346FB71094B084A1278D2B2D1B2FA7922F00702D2B20A43D2B2D2B21A700C37BD465DF8047B704700BF8240004080B400AF054B1B78DBB203F05B
:401AC0000703DBB21846BD465DF8047B704700BF8240004080B584B000AF03460A46FB8013467B7100F0CCF80346FB7300F0A2F80346BB81FA88BB899A4200F08780454B8E
:401B00001B78DBB203F00103FB72FB7B002B20D1BB89002B02D0FB88002B1AD1BB89002B0BD13D4AFB8813803C4A3C4B1B78DBB223F04003DBB2137068E0384A374B1B785B
:401B4000DBB243F04003DBB21370334AFB8813805CE0FB7A002B33D0314B00221A70314B01221A70304B00221A70304A2F4B1B78DBB203F07F03DBB21370284B1B78DBB23C
:401B800003F00803002B02D0FB88002B18D1284ABB891380224B07221A7000BF204B1B78DBB203F00103002BF8D11A4A194B1B78DBB223F00103DBB21370194B00221A70D6
:401BC000144B1B78DBB203F00103002B13D0184AFB881380124A7B79002B01D0032300E00123137000BF0E4B1B78DBB203F00103002BF8D10AE0084AFB8813800549054BDD
:401C00001B78DAB2FB7A1343DBB20B701037BD4680BD00BFA14300400041004002410040014000401440004010400040084000400240004080B400AF034B1B889BB2184616
:401C4000BD465DF8047B70470041004080B483B000AF0346FB71094B084A1278D2B2D1B2FA7922F00702D2B20A43D2B2D2B21A700C37BD465DF8047B704700BF024100404F
:401C800080B400AF054B1B78DBB203F00703DBB21846BD465DF8047B704700BF0241004080B400AF094A094B1B78DBB243F00403DBB21370064A064B1B78DBB243F004032A
:401CC000DBB21370BD465DF8047B7047A2430040B243004000000000142816D902B4012114381049097811F0C001890904B40E4A515C04BC00BF00BF00BF8841FDD500BF5B
:401D000000BF02BC704700BF00BF70F10400FCD570470B050709EFF3108072B6704780F31088704700480040121D0000AFF3008080B483B000AF134B7F221A70124B80225A
:401D40001A707F23FB710CE0FB79DB0003F1804303F5F043FA79013AD2B21A70FB79013BFB71FB79002BEFD1FB79DB0003F1804303F5F04300221A700C37BD465DF8047B80
:401D8000704700BF1581FF1F1481FF1F80B485B000AF03460A46FB711346BB710123FB60FB79172B2FD8BB79002B0ED0FB791A01184B1344FA791101164A0A441278D2B2A1
:401DC00042F02002D2B21A700DE0FB791A01114B1344FA7911010F4A0A441278D2B222F02002D2B21A70FB791A010A4B1344FA791101084A0A441278D2B242F00102D2B2AF
:401E00001A700023FB60FB6818461437BD465DF8047B70471070004080B485B000AF03460A46FB711346BB710123FB60FB79172B18D8FB791A010F4B13441B78DBB223F006
:401E40000E03FB72FB791A010A4B1344BA7902F00702D2B25200D1B2FA7A0A43D2B21A700023FB60FB6818461437BD465DF8047B704700BF1070004080B485B000AF03465B
:401E8000FB710B46BB8013467B800123FB60BB8841F6FF72934202D14FF40053BB807B8841F6FF72934202D14FF400537B80FB79172B17D8FB79DB0003F1804303F5EC433D
:401EC0000433BB60BB68BA881A80FB79DB0003F1804303F5EC430633BB60BB687A881A800023FB60FB6818461437BD465DF8047B704700BF80B485B000AF03460A46FB715D
:401F00001346BB710123FB60FB79172B07D8FB791A01064B1344BA795A720023FB60FB6818461437BD465DF8047B70471070004090B484B000AF0446084611461A4623461B
:401F4000FB710346BB710B467B7113463B710123FB60FB79172B34D8FB79DB0003F1804303F5EC43BA7902F07F02D1B27A79D201D2B20A43D2B21A70FB79DB0003F18043FC
:401F800003F5EC433A7E1201D1B23A7902F00F02D2B20A43D2B25A70FB79DB0003F1804303F5EC433A7F02F00F02D2B29A70FB79DB0003F1804303F5EC430022DA700023A4
:401FC000FB60FB6818461037BD4690BC704700BF80B582B000AFFF23FB71FFF79CFE0346BB71104B1B78182B12D90F4B1B78FB710C4B1B78013BDAB20A4B1A70FB79DB00BB
:4020000003F1804303F5F0431B78DAB2064B1A70BB791846FFF783FEFB7918460837BD4680BD00BF1481FF1F1581FF1F90B484B000AF0446084611461A462346FB710346B0
:40204000BB800B46BB711346FB700123FB60FB795BB2002B23DBBB8823F47F6323F00F039BB2002B1BD1FB79DB0003F1804303F5F043BB60BB68BA881A80FB79DB0003F168
:40208000804303F5F043BA799A70FB79DB0003F1804303F5F043FA78DA700023FB60FB6818461037BD4690BC704700BF80B485B000AF0346FB710B46BB8013467B800123EC
:4020C000FB60FB795BB2002B17DBFB79DB0003F1804303F5F0430433BB60BB68BA881A80FB79DB0003F1804303F5F0430633BB60BB687A881A800023FB60FB681846143797
:40210000BD465DF8047B704780B483B000AF0346FB7101BE0C37BD465DF8047B704700BF80B582B000AF0346FB80FB88044A127802FB03F31846FFF7CFFD0837BD4680BD30
:402140002481FF1F80B584B000AF03463960FB710F4B1B68FB60FB791F2B02D90020FFF7D3FFFB7903F01F0310339B00FA6813441B68BB60FB7903F01F0310339B00FA68F6
:4021800013443A681A60BB6818461037BD4680BD08ED00E080B582B000AF03460A46FB711346BB71BB79072B02D90020FFF7ACFFFB791F2B02D90020FFF7A6FFFB7903F072
:4021C0001F0303F1604303F56443BA795201D2B21A700837BD4680BD80B582B000AF786000F03CF8786800F009F8072000F018F800F028F80837BD4680BD00BF80B485B0B3
:4022000000AF7860054B1B68FB60FB6848337A681A601437BD465DF8047B704708ED00E080B483B000AF0346FB71054AFB795B01DBB213700C37BD465DF8047B704700BF77
:4022400002E400E080B400AF034B04221A60BD465DF8047B704700BF00E100E080B400AF034B04221A60BD465DF8047B704700BF80E100E080B400AF034B04221A60BD4686
:402280005DF8047B704700BF80E200E080B500AF00F040F9022000F075F9002000F092F9FFF796FE03461A46084B1A70FFF790FE03461A46064B1A700648192100F038F8AA
:4022C00005484FF47A7100F06BF880BDFA81FF1FFB81FF1F88340000A434000080B500AF00F036F9084B1B7818460121FFF74EFD064B1B7818460121FFF748FD002000F0B3
:4023000081F900F085F880BDF881FF1FF981FF1F80B500AF054B1B78002B04D1FFF7B6FF024B01221A70FFF7D9FF80BDF781FF1F80B582B000AF78600B467B807B681B0CF9
:402340009BB2012001211A464FF4804300F07AF803461A46104B1A70104B19780F4B1B787A88084611461A460123FFF75FFE0B4B1A787B689BB21046194645F68232FFF76E
:4023800095FE054B1A78054B1B7810461946FFF7B1FD0837BD4680BDF881FF1FFA81FF1F80B582B000AF78600B467B807B681B0C9BB2012001211A464FF4804300F076F825
:4023C00003461A46104B1A70104B19780F4B1B787A88084611461A460123FFF727FE0B4B1A787B689BB21046194645F68232FFF75DFE054B1A78054B1B7810461946FFF7B3
:4024000079FD0837BD4680BDF981FF1FFB81FF1F80B400AF094A094B1B78DBB243F00803DBB21370064A064B1B78DBB243F00803DBB21370BD465DF8047B7047A2430040BB
:40244000B243004090B585B002AF0446084611461A462346FB710346BB710B46BB8013467B80114B00221A700F4B1878F979BA7900230093002301930023FFF759FD0A4BBB
:402480001978BA887B88084611461A46FFF7F4FC054B1B7818460221FFF7BEFC024B1B7818460C37BD4690BD2C81FF1F90B585B002AF0446084611461A462346FB71034613
:4024C000BB710B46BB8013467B80114B01221A700F4B1878F979BA7900230093002301930023FFF725FD0A4B1978BA887B88084611461A46FFF7C0FC054B1B78184602214A
:40250000FFF78AFC024B1B7818460C37BD4690BD2D81FF1F80B500AF0A4B00221A700A4B00221A70094A094B1B78DBB243F00803DBB21370002000F045F8022000F022F80E
:4025400080BD00BF2858004029580040975A004080B400AF094A094B1B78DBB243F00403DBB21370064A064B1B78DBB243F00403DBB21370BD465DF8047B7047A8430040F5
:40258000B843004080B483B000AF0346FB710C4A0B4B1B78DBB223F00203DBB213700849074B1B78DAB2FB7903F00203DBB21343DBB20B700C37BD465DF8047B704700BF78
:4025C0002858004080B582B000AF0346FB710C4A0B4B1B78DBB223F00C03DBB213700849074B1B78DAB2FB7903F00C03DBB21343DBB20B7000F016F80837BD4680BD00BFF3
:402600002858004080B483B000AF0346FB71044AFB7913700C37BD465DF8047B704700BF825B004080B483B000AF0B4B1B78DBB203F00C039B08DBB20633FB71074AFB79F5
:4026400003F1924303F594731B78DBB213700C37BD465DF8047B7047285800400A46004080B483B000AF0346FB71044AFB7913700C37BD465DF8047B704700BF7965004010
:4026800080B500AF054B1B78002B04D100F008F8024B01221A7000F041F880BDFC81FF1F80B582B000AF1A4B1B78DBB223F03F03FB71174AFB7943F00903DBB21370154A89
:4026C000144B1B78DBB243F00103DBB21370FF2000F034F8FF2000F04FF87F2000F05CF8002000F069F8FFF716FB0346BB710A4A094B1B78DBB243F01003DBB21370BB7961
:402700001846FFF70CFB00F029F80837BD4680BD79640040996500409964004080B400AF054A054B1B78DBB263F07F03DBB21370BD465DF8047B70477964004080B483B07D
:4027400000AF0346FB71044AFB7913700C37BD465DF8047B704700BF0965004080B500AF01E000F045F800F037F8034603F01003002BF6D180BD00BF80B483B000AF0346C5
:40278000FB71044AFB7913700C37BD465DF8047B704700BF4965004080B483B000AF0346FB71044AFB7913700C37BD465DF8047B704700BF2965004080B483B000AF03461D
:4027C000FB71044AFB7913700C37BD465DF8047B704700BF8964004080B400AF034B1B78DBB21846BD465DF8047B70476964004080B400AF034B1B78DBB21846BD465DF81A
:40280000047B70475965004090B585B002AF0446084611461A462346FB710346BB710B46BB8013467B80114B0A221A700F4B1878F979BA7900230093002301930A23FFF78F
:4028400077FB0A4B1978BA887B88084611461A46FFF712FB054B1B7818460221FFF7DCFA024B1B7818460C37BD4690BD2E81FF1F80B582B000AF786000F03CF8786800F003
:4028800009F8072000F018F800F028F80837BD4680BD00BF80B485B000AF7860054B1B68FB60FB6844337A681A601437BD465DF8047B704708ED00E080B483B000AF034641
:4028C000FB71054AFB795B01DBB213700C37BD465DF8047B704700BF01E400E080B400AF034B02221A60BD465DF8047B704700BF00E100E080B400AF034B02221A60BD4639
:402900005DF8047B704700BF80E100E080B400AF034B02221A60BD465DF8047B704700BF80E200E080B500AF054B1B78002B04D100F008F8024B01221A7000F04DF880BD8B
:40294000FD81FF1F80B582B000AF204B1B78DBB223F03F03FB711D4AFB7943F00903DBB213701B4A1A4B1B78DBB243F00103DBB21370184A174B1B78DBB243F00103DBB256
:4029800013704FF6FF7000F037F84FF6FF7000F051F84CF2503000F05DF8002000F06AF8FFF7B9F90346BB710A4A0A4B1B78DBB243F01003DBB21370BB791846FFF7AFF9F3
:4029C00000F02AF80837BD4680BD00BF7A6400409A6400409B64004080B400AF054A054B1B78DBB263F07F03DBB21370BD465DF8047B70477A64004080B483B000AF03465A
:402A0000FB80044AFB8813800C37BD465DF8047B704700BF1468004080B500AF01E000F045F800F037F8034603F01003002BF6D180BD00BF80B483B000AF0346FB80044AF5
:402A4000FB8813800C37BD465DF8047B704700BF9468004080B483B000AF0346FB80044AFB8813800C37BD465DF8047B704700BF5468004080B483B000AF0346FB71044A91
:402A8000FB7913700C37BD465DF8047B704700BF8B64004080B400AF034B1B78DBB21846BD465DF8047B70476B64004080B400AF034B1B889BB21846BD465DF8047B704707
:402AC000B4680040014B1868704700BF9081FF1F0E4B70B51E460E4C0025E41AA410A54204D056F8253098470135F8E700F0EAFE084B094C1E46E41AA4100025A54204D02E
:402B000056F8253098470135F8E770BDD0380000D0380000D0380000D838000010B5431E0A44914204D011F8014B03F8014FF8E710BD03460244934202D003F8011BFAE714
:402B4000704700000EB400B54FF402719CB0ADF814106FF00041049107914FF6FF711DABADF81610084953F8042B02900690086802A9019300F064F8029B00221A701CB044
:402B80005DF804EB03B070479081FF1F2DE9F0478E688246B3420C469046994640D38A8912F4906F3AD02568096902236F1A656905EB450595FBF3F57B1C4B449D4238BFD3
:402BC0001D4653050FD5294600F030FB064698B121693A46FFF7A2FFA38923F4906343F08003A38113E02A4600F076FB064670B95046216900F0D6FA0C23CAF80030A38900
:402C00004FF0FF3043F04003A381BDE8F08726613E4426604E466561ED1BA560B14500D24E4632462068414600F0A0FAA36800209B1BA36023681E442660BDE8F08700009A
:402C40002DE9F0439DB003938B8906461C060D4690460CD50B6953B9402100F0E7FA2860286110B90C233360CCE040236B610023099320238DF8293030238DF82A304346D8
:402C80001C4613F8012B1AB9B4EB08090FD002E0252AF5D1F8E73046294642464B46FFF775FF013000F0A980099B4B4409932378002B00F0A28000234FF0FF320493079326
:402CC000059206938DF853301A9304F101084446DFF8489121784846052200F039FA08F10108049B30B1C9EB00000122824013430493ECE7D80644BF20228DF85320190730
:402D000044BF2B228DF8532022782A2A02D0079923460EE0039A0134111D12680391002ABBBF524243F0020307920792B8BF04930AE01C4622780133303A092A03D80A201A
:402D400000FB0121F5E7079123782E2B1AD163782A2B0AD1039B02341A1D1B680392002BB8BF4FF0FF3305930CE0611C00220C4623780131303B092B03D80A2000FB02328D
:402D8000F5E70592DFF8988021784046032200F0DFF938B1049AC8EB00004023834013430493013421781A48062204F101088DF8281000F0CDF988B1164B33B9039B073331
:402DC00023F007030833039313E003AB0093304604A92A46104BAFF3008007E003AB0093304604A92A460C4B00F092F8421C074603D0099B3B44099341E7AB895B0601D446
:402E0000099801E04FF0FF301DB0BDE8F08300BF98380000000000008D2B00008E380000943800002DE9F84391461F468A680B6906469342B8BF1346C9F8003091F8432023
:402E40000C46DDF8208012B10133C9F800302368990642BFD9F800300233C9F80030256815F006051CD094F843302268003318BF012392061FD5E118302081F843005A1C0A
:402E800094F845102244023382F8431013E03046394604F119020123C047013007D00135E368D9F800209B1A9D42F0DBDBE74FF0FF30BDE8F8833046394604F14302C04747
:402EC0000130F4D02268D9F80050E36802F00602042A08BF5D1B2269A3680CBF25EAE57500259342C4BF9B1AED184FF00009A9450ADA3046394604F11A020123C047013003
:402F0000D5D009F10109F2E70020BDE8F88300002DE9FF410C461746227E98466E2A06460A9B01F1430100F0B08012D8632A23D00AD8002A00F0BD80582A40F0CC8084F850
:402F40004520DFF804E257E0642A1ED0692A1CD0C1E0732A00F0B18009D86F2A2ED0702A40F0B980226842F0200222603FE0752A24D0782A3BD0AEE01A6804F14205111DEA
:402F80001960136884F84230A9E020681A6810F0800F02D0101D186008E010F0400F02F10400186002D0B2F9003000E01368002B3EDA2D225B4284F8432039E020681A68B7
:402FC00010F0800F02D0101D186007E010F0400F02F10400186001D0138800E01368227EDFF864E16F2A0CBF08220A221CE07822DFF858E184F845202268186812F0800FC7
:4030000000F104051D6003D1550601D5038800E00368D00744BF42F0200222601BB9226822F0200222601022002084F8430002E0DFF814E10A226568002DA8BF2068A560A1
:40304000A4BF20F00400206003B965B10D46B3FBF2F002FB10331EF8033005F8013D03460028F4D100E00D46082A0BD12368DA0708D5236962689A42DEBF302305F8013CC4
:4030800005F1FF35491B21612EE025681A6815F0800F606903D0151D1D60136808E015F0400F02F104051D60136801D0188000E01860002323610D4616E01A68111D19607F
:4030C000156800212846626800F042F808B1401B6060636804E004F1420584F8422001232361002384F84330CDF800803046214603AA3B46FFF796FE013002D14FF0FF302D
:403100001FE0304639462A462369C0470130F5D023689B0705D4E068039B9842B8BF18460FE00025E368039A9B1A9D42F3DA3046394604F119020123C0470130DED0013565
:40314000F0E704B0BDE8F0819F380000B038000010B5C9B202449042034605D01C7801308C42F8D1184610BD002010BD814210B501EB020301D3421E0BE09842FBD281182D
:40318000D21AD34204D013F8014D01F8014DF8E710BD994204D011F8014B02F8014FF8E710BD000030B500293CD051F8042C0B1F1D49002AB8BF9B180A680C4612B95A6034
:4031C0000B6030BD93420DD219685818904201BF5A5852181A60426823605A6030BD994203D80A4651680029F9D1146815199D420AD11B682344D0188842136012D108685E
:40320000034413604B680CE002D90C23036030BD1C681819884201BF08684968001918605960536030BD00BF0482FF1F70B5CC1C24F0030408340C2C38BF0C24002C0646F3
:4032400003DA0C233360002070BD8C42F9D3204A136810461946A1B10A68121B0ED40B2A03D90A608B188C501FE08B420BBF5A684A6802605A6018BF0B4616E00B4649681B
:40328000E9E7144D2B681BB9304600F04BF828603046214600F046F8421C0346D1D0C51C25F0030585420AD11C6003F10B001A1D20F00700821A0AD05142995070BD3046F4
:4032C000E91A00F02FF80130BBD02B46ECE770BD0482FF1F0082FF1FF8B5074615460E4621B91146BDE8F840FFF7A0BF1AB9FFF759FF2846F8BD00F025F8A8420ED238469E
:403300002946FFF793FF044650B131462A46FFF705FC38463146FFF745FF01E03046F8BD2046F8BD38B5064C0023054608462360FDF70AF9431C02D1236803B12B6038BDB1
:403340001C92FF1F51F8040C0028BEBF091851F8043CC0180438704700000000676F742074686973206368617261637465723A2025640D0A00000000526563656976696EF0
:403380006720646567726565732C206469676974706C6163653A2025640D0A0053696E676C652041444320526561643A20256C750D0A0000496E76616C696420636F6D6D5B
:4033C000616E64210D0A0000434F4D20506F7274204F70656E0D0A00496E697469616C697A656420726561643A20256C75206D560D0A000077726974696E67207468657391
:4034000065206465677265657320746F20736572766F3A2025640D0A0000000073696E67696E6720776974682076616C75653A2025640D0A00000000035B00402443004095
:4034400040000000005100401000305100404000F05100401000000001400010001401408006001B0140000100400140000A004C014000020050014020000000801A0140AA
:403480005405004880000000809FBCD5E9F6FCFAF1E0C9AE8F7051361F0E050309162A43600000007D7D7D7D7E7E7E7E7E7E7F7F7F7F7F7F80808080808080818181818190
:4034C00081828282828282828383838383838484848484848485858585858585868686868686868787878787878888888888888888898989898989898A8A8A8A8A8A8A8B48
:403500008B8B8B8B8B8B8B8C8C8C8C8C8C8C8C8D8D8D8D8D8D8D8D8E8E8E8E8E8E8E8E8E8F8F8F8F8F8F8F8F8F9090909090909090909091919191919191919191919292F2
:403540009292929292929292929393939393939393939393939393949494949494949494949494949494949595959595959595959595959595959595959595959595959651
:40358000969696969696969696969696969696969696969696969696969696969696969696969696969696969696969696969696969696969696969696969696969695958D
:4035C00095959595959595959595959595959595959595959595949494949494949494949494949494949393939393939393939393939393929292929292929292929291DC
:4036000091919191919191919191909090909090909090908F8F8F8F8F8F8F8F8F8E8E8E8E8E8E8E8E8E8D8D8D8D8D8D8D8D8C8C8C8C8C8C8C8C8B8B8B8B8B8B8B8B8A8A07
:403640008A8A8A8A8A8989898989898988888888888888888787878787878686868686868685858585858585848484848484848383838383838282828282828281818181E2
:403680008181808080808080807F7F7F7F7F7F7E7E7E7E7E7E7D7D7D7D7D7D7D7C7C7C7C7C7C7B7B7B7B7B7B7A7A7A7A7A7A7A797979797979787878787878787777777715
:4036C0007777767676767676767575757575757574747474747474737373737373727272727272727271717171717171707070707070706F6F6F6F6F6F6F6F6E6E6E6E6E3C
:403700006E6E6E6D6D6D6D6D6D6D6D6C6C6C6C6C6C6C6C6C6B6B6B6B6B6B6B6B6B6A6A6A6A6A6A6A6A6A6A69696969696969696969696868686868686868686868676767F4
:4037400067676767676767676767676666666666666666666666666666666665656565656565656565656565656565656565656565656564646464646464646464646464F0
:4037800064646464646464646464646464646464646464646464646464646464646464646464646464646464646464646464646464646565656565656565656565656565FB
:4037C00065656565656565656565666666666666666666666666666666666767676767676767676767676767686868686868686868686869696969696969696969696A6A06
:403800006A6A6A6A6A6A6A6A6B6B6B6B6B6B6B6B6B6C6C6C6C6C6C6C6C6C6D6D6D6D6D6D6D6D6E6E6E6E6E6E6E6E6F6F6F6F6F6F6F6F707070707070707171717171717132
:403840007272727272727272737373737373747474747474747575757575757576767676767676777777777777787878787878787979797979797A7A7A7A7A7A7A7B7B7BBE
:403880007B7B7B7C7C7C7C7C7C7D7D7D4300232D302B2000686C4C006566674546470030313233343536373839414243444546003031323334353637383961626364656602
:4038C00000000000F8B500BFF8BC08BC9E4670474D00000031060000F8B500BFF8BC08BC9E46704729000000F83800000881FF1F9000000088100000000000002092FF1F4E
:4039000001FF0000807F00000304000000366E01C05D0000180000000000E02EFFFFFF0000000000000000000000000000000000000000000000000000000000000000009C
:403940008C38000000000000000000000000000000000000000000000000000000000000000000000000000000000000000000000000000000000000000000000000000083
:403980003081FF1F00000000000000000000000000000000000000000000000000000000000000000000000000000000000000000000000000000000000000000000000038
:4039C00000000000000000000000000000000000000000000000000000000000000000000000000000000000000000000000000000000000000000000000000000000000C7
:403A00000000000000000000000000000000000000000000000000000000000000000000000000000000000000000000000000000000000000000000000000000000000086
:403A40000000000000000000000000000000000000000000000000000000000000000000000000000000000000000000000000000000000000000000000000000000000046
:403A80000000000000000000000000000000000000000000000000000000000000000000000000000000000000000000000000000000000000000000000000000000000006
:020000040003F7
:0200000480007A
:4000000004520040015A004003640040026500400404014002050140010701405508014040090140630A01403A0B01400115014003170140511801403B190140051A0140BA
:400040003D1B014007400140074101400642014005430140024401400345014009460140064701400D48014005490140094C0140094D0140045001400251014009401002C0
:40008000618064409701880F890D8B0D88388B72B980BF40D904DF012401E002B4010220041C06020701081009020A0C0C090E10140C161119011A201E03201424402810A6
:4000C0002901310332203440361F39023E1440264103450E46CB480D49FF4AFF4BFF4EF04F44500C5401580459045A045B045C225D225F0166C06A406B0285048A028B0288
:40010000910195069906A601AA02AB01B001B101B306B402B908BE10BF04C003C604C9FFCA07CBFFCC40CD20CEF0CF05D008D280D405D804D904DA04DB04DC44DD42DF01BD
:40014000E040E1A8E240E32001200484051007400C200D080E0112141404150416401A041B021C201E092010238024802A102F0831183312351038243B103C043F104010D0
:40018000450847104D044F1050905640572059015A045B805C425E287340881089809044948097109910A108A210A308A480A720B122B204C0F2C2E0C476CA24CC27CE669E
:4001C000D062D220D6FBEC100A020B030F0C12011501170E190C1B031F08260229012B0632013402350F3B204030410249FF4AFF4BFF4DA04F0450185280580459045A0477
:400200005B045C215D115F01604062C06440654066C068C06AC06CC06EC0803082458426864187058A088B028E0691029430950196409A089B029E02A651A702A830A9024B
:40024000AA43B008B102B207B474B504B701BA28BE01BF01C030C102C5D1C620C80BC9FFCAFFCBFFCDAFCE0FCF04D018D405D804D904DA04DB04DC12DD11DF01E040E2C035
:40028000E440E540E6C0E8C0EAC0ECC0EEC00010049405020A400C800D200E20102015101620181019201D1A1F082004222024402680270829102D102F28308031083220D2
:4002C000358236A0370838803B103E203F18401041204304452047044C204D014F0855205D815E046D8072407A107B2089408D12C0F2C2E8C464CA64CCEECE6CD066D6D05E
:40030000E002EE04E020E208E60C04010520080109140B090D201101120213061402152019201A041E0420012402251F291F2A022D0A2F113001310732043320351836028C
:4003400038803E043F0454185604580459045B045C225D205F018302860287028A048C028F019201A604B004B101B202B401B702BE04BF40C060C103C5D0C610C702C81A45
:40038000C9FFCAFFCBFFCDA0CF04D018D804D904DA04DB04DC34DD04DF01E040E2C0E440E540E6C0E8C0EAC0ECC0EEC00040012404280B400D800E600F04121016081705D0
:4003C00019281B021D821F04204021012280253026052C022F283611370439863D283E4841044921510452145C0165806602678869808108860287408904920193409980B8
:400400009D219E149F40A420B086B104C067C2F8C474CA70CCE0CE7BD002D204D680D8B0E0201C0130013E0158045F010581061007040A010D210E22144015081710188067
:400440001D891E6424012514260227542C422D202E043580361137043D093E604440459A4E024F0454205E086C146F2975A076308521880289258C4092019429964097042D
:400480009F45A122A205A422A504A610A728AA80AF02C0F0C2F1C470CAF0CCF0CEF0D0F0D210D640E8083002338037803B023D40CC70CE601380954097029F80A402A780FF
:4004C000C440870195409702A402A780E040954097029F01A402A7807C01DE0154089401D40233804508850888089401A408CC08D001E4049340A780B340B401E804EC08AA
:4005000027018140840287808A01954097029F01A402A780C820E210E6301A029602AB01C640EE205A0163407F908B109340A780D602D802E0041080798088808D40AE0136
:40054000C408DC01E408E60100160C16101C1C1C003F100A0F8020000C3C00C22F180000081C00E104C0000023FF0C0002E7801803104000000023E3010090040C0823006D
:40058000004400002C380F1F1000C0C000000A280000400034020500010EC00009FFFFFF62A0F0410C00000000000212040404042222000100000000000040020010301019
:4005C000001010120000000000000000000000000000000080004080800080000000000000C0C000C0000000000202000200000095001801000A000000000000000000008B
:4006000000000000000000000000000000000000000000000000000000000000000000000000000000000000000000000000000000000000000000000000000000000000BA
:40064000000000000000000000000000000000000000000000000000000000000000000000000000000000000000000000000000000000000000000000000000000000007A
:40068000000000000000000000000000000000000000000000000000000000000000000000000000000000000000000000000000000000000000000000000000000000003A
:4006C00000000000000000000000000000000000000000000000000000000000000000000000000000000000000000000000000000000000000000000000000000000000FA
:0200000490006A
:0400000000004005B7
:0200000490105A
:04000000BC90ACAF55
:0200000490303A
:02000000038A71
:0200000490402A
:4000000000000000000000000000000000000000000000000000000000000000000000000000000000000000000000000000000000000000000000000000000000000000C0
:400040000000000000000000000000000000000000000000000000000000000000000000000000000000000000000000000000000000000000000000000000000000000080
:400080000000000000000000000000000000000000000000000000000000000000000000000000000000000000000000000000000000000000000000000000000000000040
:4000C0000000000000000000000000000000000000000000000000000000000000000000000000000000000000000000000000000000000000000000000000000000000000
:0200000490501A
:0C00000000012E16106900012E2D13F3D4
:00000001FF