:400000000080002011000000CD040000CD04000080B500AF024A034B1B68136000F082FABC760040FA4600400800022300000876080003230000107608000423000028766F
:4000400008000523000030760500062300002070050007230000307005000823000060700500FE230000707020000A220000005130000B220000405110000C220000C0513D
:400080001000FE220000F05180050E220000000080050F2200000006800010220000000C000211220000000E800112220000001480051322000000168000142200000041CD
:4000C0008000152200000042800016220000004300011722000000448000182200000046000119220000004780001A220000004980001B220000004D2000FE22000000506C
:4001000007001D23000010520800FE230000285B08001F2300000051800020230000800C800021230000804D800022230000004C800023230000804C8000242300008046BF
:4001400080002523000000458000262300008045800027230000801B8000282300008015800029230000800B80002A230000800580002B230000000D80002C230000800D3F
:4001800080002D230000804980002E230000004880002F230000804880003023000080438000312300008042800032230000804180003323000000408000FE2300008040BA
:4001C0000100000001000000010000000048014001000000004800400100000000200140010000000020004010B5054C237833B9044B13B10448AFF300800123237010BD85
:400200009881FF1F0000000078270000084B10B51BB108480849AFF300800848036803B910BD074B002BFBD0BDE81040184700BF00000000782700009C81FF1F0881FF1F21
:40024000000000000000000080B500AF704B00221A70704B01221A7000F0E0FC00F0D2FC0346002B3AD06C4B1B7883F00103DBB2002B33D0684B01221A70322000F034FC75
:4002800000F0C0FC0346002B24D0614B1A78614B1B789A421ED05E4B1B78002B09D15C4B01221A70012000F0DDF85C4801F070FB0CE0574B1B78012B08D1554B00221A70F6
:4002C000002000F0CFF8564801F062FB504B1A78504B1A70504B00221A7009E04C4B1B78002B0CBF01230023DBB21A46494B1A70474B1B78002B0DD100F0A2F803469B08A3
:400300009BB21A46474B1A60464B1B68184600F0B5F876E03E4B1B78012B72D1424B1B6818464FF07E5101F0BFFA0346002B03D03E4B01221A700CE03B4B1B6818464FF0DF
:40034000000101F0A7FA0346002B02D0374B00221A70364B1B78002B17D0334B1B68184600F03EFF02460B461046194626A3D3E9002300F0D5FD02460B461046194600F0CE
:4003800083FF0246284B1A6016E0274B1B68184600F026FF02460B46104619461AA3D3E9002300F0BFFD02460B461046194600F06BFF02461C4B1A601D4B10221A601C4B46
:4003C0001B68184601F066F80246174B1B681046194601F0B7F80346184601F079FA0246144B1A60124B1A68124B1B68D31A124A1360104B1A68104B1B681046194600F044
:4004000051F82BE7AFF300807B14AE47E17A943FCC81FF1FCD81FF1FB481FF1F7C270000942700000C81FF1F1C81FF1FB581FF1F1081FF1F1481FF1F1881FF1FAFF3008010
:4004400080B582B000AF00F0BDFC002000F0CAFC00F0E8FC0346FB80FB8818460837BD4680BD00BF80B582B000AF78607B68DBB2184600F0B7FB0837BD4680BD80B582B0EC
:4004800000AF78600120FFF7EDFF786800F02CFB0020FFF7E7FF786800F026FB0837BD4680BD00BF80B582B000AF786039600120FFF7D8FF786800F017FB0020FFF7D2FF52
:4004C000386800F011FB0837BD4680BD80B400AFFEE700BF80B584B000AF78600F4B1A687B6813441A460E4BD31A802B09DC0B4B1B68FB60094B1A687B681344074A136016
:4005000007E001F005FA02460C2313604FF0FF33FB60FB6818461037BD4680BD2081FF1FE081FF1F80B586B000AF224B7B61224B3B61204B7B6135E03B691B68FB603B69BA
:400540005B68BB603B699B683B6000237B600CE0FB681A68BB681A60BB680433BB60FB680433FB607B6804337B607A683B689A42EED13B69DB683B6000237B6008E0BB68E5
:4005800000221A60BB680433BB607B6804337B607A683B689A42F2D13B6910333B617B69013B7B617B69002BC6D101F0B7F9FFF74BFEFEE7010000003829000080B582B05E
:4005C00000AF174B174A1A60174A174B1B6843F40073136000237B600FE07B68032B04D8124A7B6852F8233000E0114B11497A6841F822307B6801337B607B682F2BECD9FF
:400600000D4B1B78DAB20D4B1A700D4B094A1A6000F0C4F90B4B00221A600837BD4680BD0CED00E00004FA0514ED00E000000000CD0400000080FF1FBC7600400481FF1FDD
:4006400008ED00E00081FF1F80B584B000AFF860B9607A60F868B9687A6801F085F91037BD4680BD80B483B000AF0346FB71FEE780B483B000AF434B00221A60424B10229B
:400680001A70424B01221A70414B00221A70414B4FF4CC721A80404B01221A703F4B03221A703F4B3F4A92B21A803F4B47F608021A803E4B00221A803D4B4FF480421A805E
:4006C0003C4B09221A703C4B0D221A703B4B1C221A703B4B1E221A70BFF35F8F394B01221A70BFF35F8F00BF2A4B1B889BB2002BFAD100237B600DE07B68DA00324B1344D9
:400700001946324A7B6852F823309BB20B807B6801337B607B68322BEED9BFF35F8F294B01221A70BFF35F8F00BF294B1B78DBB203F00103002BF8D100BF264B1B78DBB29E
:4007400003F00103002BF8D100BF234B1B78DBB203F00103002BF8D100BF204B1B78DBB203F00103002BF8D100BF1D4B1B78DBB203F00103002BF8D10C37BD465DF8047BD5
:40078000704700BFB881FF1F00760040107000401970004000780040027800400378004004780040280000000678004004760040067600402970004039700040697000400D
:4007C00079700040147000400C780040AC270000187000402870004038700040687000407870004080B582B000AF334B0E221A80324B18221A70324B47F22F521A80314BC1
:4008000019221A70304B02221A704FF0402308221A702E4B03221A702D4B2E4A1278D2B21A702D4B08221A802C4B41F251221A800023FB7019237B6014E0FB785B00DAB2DE
:40084000274B1B78DBB203F00103DBB21343DBB203F00303FB704FF4F07000F00DF97B68013B7B607B68002B02D0FB78032BE4D17B68002B02D10320FFF7F4FE194B4FF4BF
:4008800080721A80174B07221A70174B00221A70164B48221A70134B00221A70144B02221A70144A134B1B78DBB243F00303DBB213700837BD4680BD804000408240004077
:4008C00084400040864000400043004000420040A14600400801004922420040204200402542004004400040064000400840004001400040A243004080B582B000AF1D4BCD
:400900001B78FB711C4B1B78BB711C4B1B787B711B4AFB7903F00703DBB21370194AFB791B09DBB21370144ABB7943F00303DBB21370124A7B7943F00303DBB21370124BEA
:4009400080221A70114B60221A70114B80221A70104B20221A700A2000F0E8F8074A7B791370054ABB7913700B4B44221A700837BD4680BDCF010049F8460040F946004091
:400980006E5800406F5800403D51004009590040285B00402B5B00407658004080B500AF72B6274A264B1B78DBB243F00403DBB21370FFF75DFE234A224B1B78DBB243F04D
:4009C0000203DBB21370204A1F4B1B78DBB243F00203DBB213701D4A1C4B1B78DBB243F04003DBB213701A4A194B1B78DBB243F01003DBB21370174817490A22FFF724FEF1
:400A0000164817490822FFF71FFE164A154B1B78DBB243F00803DBB21370134B60221A70FFF7E0FE104B80221A70104B01221A70FFF762FF0E4805490E22FFF705FE80BD5F
:400A4000E84600400350014013500140A0430040C243004020510040980A004832510040A40A0048224300400048004004000840B043004000000000142816D902B4012165
:400A800014381049097811F0C001890904B40E4A515C04BC00BF00BF00BF8841FDD500BF00BF02BC704700BF00BF70F10400FCD570470B050709EFF3108072B6704780F325
:400AC0001088704700480040B20A0000AFF3008080B483B000AF0346FB7101BE0C37BD465DF8047B704700BF80B582B000AF786008E00C4B1B681846FFF7BEFF7B68A3F5EB
:400B000000437B607B68B3F5004FF2D8064B1B687A6802FB03F31846FFF7AEFF0837BD4680BD00BF3081FF1F2881FF1F80B582B000AF0346FB80FB88044A127802FB03F34D
:400B40001846FFF799FF0837BD4680BD2C81FF1F80B584B000AF03463960FB710F4B1B68FB60FB791F2B02D90020FFF7B1FFFB7903F01F0310339B00FA6813441B68BB6084
:400B8000FB7903F01F0310339B00FA6813443A681A60BB6818461037BD4680BD08ED00E080B582B000AF03460A46FB711346BB71BB79072B02D90020FFF78AFFFB791F2BDE
:400BC00002D90020FFF784FFFB7903F01F0303F1604303F56443BA795201D2B21A700837BD4680BD80B483B000AF0346FB71044AFB7913700C37BD465DF8047B704700BF0F
:400C00007D64004080B400AF034B1B78DBB21846BD465DF8047B70476D64004080B500AF054B1B78002B04D100F008F8024B01221A7000F025F880BDC081FF1F80B500AF07
:400C4000102000F04FF900200721FFF7A9FF00200849FFF77DFF084A074B1B78DBB243F00603DBB213700C2000F084F8034B00221A8080BDD90E000009590040D881FF1F54
:400C800080B582B000AFFFF716FF0346FB712E4A2D4B1B78DBB243F00203DBB213702B4A2A4B1B78DBB243F00203DBB21370284A274B1B78DBB243F00103DBB21370254AFA
:400CC000244B1B78DBB243F00103DBB21370224B1B78BB71BB7943F00203BB71BB7943F00103BB711C4ABB7913701C4B18221A701B4A1B4B1B78DBB243F04003DBB213700A
:400D0000174A174B1B78DBB223F00303DBB21370144BC8221A70144B02221A70134A134B1B78DBB243F00803DBB213700A20FFF7FDFE0F4B01221A60FB791846FFF7BFFE07
:400D40000837BD4680BD00BFAB430040BB430040A2430040B24300400B5900400E5900400D59004008590040164600402F5B004080E200E080B584B000AF0346FB71FB79F4
:400D80000A2B07D00C2B02D0082B06D008E0C223FB730BE08223FB7308E04223FB7305E0C223FB730020FFF793FE00BF044AFB7B1370FB79184600F04FF81037BD4680BDAC
:400DC0000A59004080B400AF054A054B1B78DBB243F00103DBB21370BD465DF8047B70470859004080B584B000AF0346FB710C4B1B78DBB203F00103FB73FB7B012B02D01B
:400E0000FB79002BF3D0FB7B012B04D10120FFF78DFE034B1B78FB7B18461037BD4680BD0959004080B483B000AF094B1B88FB80084B1B889BB29BB2FA88D31A9BB29BB238
:400E40001BB218460C37BD465DF8047B704700BFA25B0040D281FF1F80B584B000AF0346FB71FB790A2B08D00C2B02D0082B08D00BE04FF48053FB600DE04FF48063FB60DD
:400E800009E04FF48073FB6005E00023FB600020FFF71EFE00BF0C4B00221A80FB6842F2107202FB03F303F59C530833074A82FB03121213DB17D31A054A1360054B002208
:400EC0001A801037BD4680BDD081FF1FAD8BDB68D481FF1FD281FF1F80B400AFBD465DF8047B704780B483B000AF0346FB71094B084A1278D2B2D1B2FA7922F00702D2B27E
:400F00000A43D2B2D2B21A700C37BD465DF8047B704700BF8240004081F0004102E000BF83F0004330B54FEA41044FEA430594EA050F08BF90EA020F1FBF54EA000C55EA08
:400F4000020C7FEA645C7FEA655C00F0E2804FEA5454D4EB5555B8BF6D420CDD2C4480EA020281EA030382EA000083EA010180EA020281EA0303362D88BF30BD11F0004F75
:400F80004FEA01314FF4801C4CEA113102D0404261EB410113F0004F4FEA03334CEA133302D0524263EB430394EA050F00F0A780A4F10104D5F1200E0DDB02FA0EFC22FA15
:400FC00005F2801841F1000103FA0EF2801843FA05F359410EE0A5F120050EF1200E012A03FA0EFC28BF4CF0020C43FA05F3C01851EBE37101F0004507D54FF0000EDCF1C9
:40100000000C7EEB00006EEB0101B1F5801F1BD3B1F5001F0CD349085FEA30004FEA3C0C04F101044FEA445212F5800F80F09A80BCF1004F08BF5FEA500C50F1000041EB00
:40104000045141EA050130BD5FEA4C0C404141EB010111F4801FA4F10104E9D191F0000F04BF01460020B1FA81F308BF2033A3F10B03B3F120020CDA0C3208DD02F1140C3E
:40108000C2F10C0201FA0CF021FA02F10CE002F11402D8BFC2F1200C01FA02F120FA0CFCDCBF41EA0C019040E41AA2BF01EB0451294330BD6FEA04041F3C1CDA0C340EDC77
:4010C00004F11404C4F1200220FA04F001FA02F340EA030021FA04F345EA030130BDC4F10C04C4F1200220FA02F001FA04F340EA0300294630BD21FA04F0294630BD94F09D
:40110000000F83F4801306BF81F480110134013D4EE77FEA645C18BF7FEA655C29D094EA050F08BF90EA020F05D054EA000C04BF1946104630BD91EA030F1EBF00210020ED
:4011400030BD5FEA545C05D14000494128BF41F0004130BD14F580043CBF01F5801130BD01F0004545F0FE4141F470014FF0000030BD7FEA645C1ABF194610467FEA655C4A
:401180001CBF0B46024650EA013406BF52EA033591EA030F41F4002130BD00BF90F0000F04BF0021704730B54FF4806404F132044FF000054FF0000150E700BF90F0000F1A
:4011C00004BF0021704730B54FF4806404F1320410F0004548BF40424FF000013EE700BF42004FEAE2014FEA31014FEA02701FBF12F07F4393F07F4F81F06051704792F069
:40120000000F14BF93F07F4F704730B54FF4607401F0004521F0004120E700BF50EA010208BF704730B54FF000050AE050EA010208BF704730B511F0004502D5404261EB21
:4012400041014FF4806404F132045FEA915C3FF4DCAE4FF003025FEADC0C18BF03325FEADC0C18BF033202EBDC02C2F1200300FA03FC20FA02F001FA03FE40EA0E0021FA34
:4012800002F11444C1E600BF4FEA4102B2F1E04324BFB3F5001CDCF1FE5C0DD901F0004C4FEAC0024CEA5070B2F1004F40EB830008BF20F00100704711F0804F21D113F164
:4012C0003872BCBF01F00040704741F480114FEA5252C2F11802C2F1200C10FA0CF320FA02F018BF40F001004FEAC1234FEAD32303FA0CFC40EA0C0023FA02F34FEA43035D
:40130000CCE77FEA625307D150EA01331EBF4FF0FE4040F44000704701F0004040F0FE4040F40000704700BF80F0004002E000BF81F0004142001FBF5FEA410392EA030F8A
:401340007FEA226C7FEA236C6AD04FEA1262D2EB1363C1BFD218414048404140B8BF5B42192B88BF704710F0004F40F4000020F07F4018BF404211F0004F41F4000121F0D8
:401380007F4118BF494292EA030F3FD0A2F1010241FA03FC10EB0C00C3F1200301FA03F100F0004302D5494260EB4000B0F5000F13D3B0F1807F06D340084FEA310102F1F8
:4013C0000102FE2A51D2B1F1004F40EBC25008BF20F0010040EA03007047490040EB000010F4000FA2F10102EDD1B0FA80FCACF1080CB2EB0C0200FA0CF0AABF00EBC250FC
:4014000052421843BCBFD0401843704792F0000F81F4000106BF80F400000132013BB5E74FEA41037FEA226C18BF7FEA236C21D092EA030F04D092F0000F08BF08467047E2
:4014400090EA010F1CBF0020704712F07F4F04D1400028BF40F00040704712F100723CBF00F50000704700F0004343F0FE4040F4000070477FEA226216BF08467FEA236393
:401480000146420206BF5FEA412390EA010F40F4800070474FF0000304E000BF10F0004348BF40425FEA000C08BF704743F0964301464FF000001CE050EA010208BF70476D
:4014C0004FF000030AE000BF50EA010208BF704711F0004302D5404261EB41015FEA010C02BF84460146002043F0B64308BFA3F18053A3F50003BCFA8CF2083AA3EBC253C5
:4015000010DB01FA02FC634400FA02FCC2F12002BCF1004F20FA02F243EB020008BF20F00100704702F1200201FA02FCC2F1200250EA4C0021FA02F243EB020008BF20EA11
:40154000DC7070474FF0FF0C1CEAD0521EBF1CEAD15392EA0C0F93EA0C0F6FD01A4480EA010C400218BF5FEA41211ED04FF0006343EA501043EA5111A0FB01310CF0004033
:40158000B1F5000F3EBF490041EAD3715B0040EA010062F17F02FD2A1DD8B3F1004F40EBC25008BF20F00100704790F0000F0CF0004C08BF49024CEA502040EA51207F3AA9
:4015C000C2BFD2F1FF0340EAC250704740F400004FF00003013A5DDC12F1190FDCBF00F000407047C2F10002410021FA02F1C2F1200200FA02FC5FEA310040F1000053EA62
:401600004C0308BF20EADC70704792F0000F00F0004C02BF400010F4000F013AF9D040EA0C0093F0000F01F0004C02BF490011F4000F013BF9D041EA0C018FE70CEAD153B2
:4016400092EA0C0F18BF93EA0C0F0AD030F0004C18BF31F0004CD8D180EA010000F00040704790F0000F17BF90F0004F084691F0000F91F0004F14D092EA0C0F01D142026C
:401680000FD193EA0C0F03D14B0218BF084608D180EA010000F0004040F0FE4040F40000704740F0FE4040F4400070474FF0FF0C1CEAD0521EBF1CEAD15392EA0C0F93EA79
:4016C0000C0F69D0A2EB030280EA010C49024FEA402037D04FF0805343EA111143EA10130CF000408B4238BF5B0042F17D024FF4000C8B4224BF5B1A40EA0C00B3EB510F3C
:4017000024BFA3EB510340EA5C00B3EB910F24BFA3EB910340EA9C00B3EBD10F24BFA3EBD10340EADC001B0118BF5FEA1C1CE0D1FD2A3FF650AF8B4240EBC25008BF20F02B
:40174000010070470CF0004C4CEA50207F32C2BFD2F1FF0340EAC250704740F400004FF00003013A37E792F0000F00F0004C02BF400010F4000F013AF9D040EA0C0093F06C
:40178000000F01F0004C02BF490011F4000F013BF9D041EA0C0195E70CEAD15392EA0C0F08D142027FF47DAF93EA0C0F7FF470AF084676E793EA0C0F04D14B023FF44CAFDC
:4017C00008466EE730F0004C18BF31F0004CCAD130F000427FF45CAF31F000437FF43CAF5FE700BF4FF0FF3C06E000BF4FF0010C02E000BF4FF0010C4DF804CD4FEA40026B
:401800004FEA41037FEA226C18BF7FEA236C11D001B052EA530C18BF90EA010F58BFB2EB030088BFC81738BF6FEAE17018BF40F0010070477FEA226C02D15FEA402C05D145
:401840007FEA236CE4D15FEA412CE1D05DF8040B704700BF844608466146FFE70FB5FFF7C9FF002848BF10F1000F0FBD4DF808EDFFF7F4FF0CBF012000205DF808FB00BF02
:401880004DF808EDFFF7EAFF34BF012000205DF808FB00BF4DF808EDFFF7E0FF94BF012000205DF808FB00BF4DF808EDFFF7D2FF94BF012000205DF808FB00BF4DF808ED24
:4018C000FFF7C8FF34BF012000205DF808FB00BF42000ED2B2F1FE4F0BD34FF09E03B3EB126209D44FEA002343F0004323FA02F070474FF00000704712F1610F01D142020A
:4019000002D14FF0FF3070474FF00000704700BF014B1868704700BF9481FF1F0E4B70B51E460E4C0025E41AA410A54204D056F8253098470135F8E700F0ECFF084B094C9D
:401940001E46E41AA4100025A54204D056F8253098470135F8E770BD2029000020290000202900002829000010B5431E0A44914204D011F8014B03F8014FF8E710BD0346D1
:401980000244934202D003F8011BFAE7704700000FB40A4B13B51C6824B1A36913B9204600F04EF805AB2046A168049A019300F04DF902B0BDE8104004B070479481FF1F12
:4019C000014900F0A7B800BFFD24000010B50446002303604360836081814366C28103614361836119465C300822FFF7C8FF054B24626362044BA362044BE362044B23634F
:401A000010BD00BFA9210000CB210000032200002722000070B568234D1E5D430E4605F1740100F095F8044640B1002180E842000C30A06005F16802FFF7A1FF204670BD34
:401A4000836910B5044633BB8364C3640365124B124A1B688262984204BF0123836100F01FF86060204600F01BF8A060204600F017F80421E06000226068FFF7A7FFA068BA
:401A800009210122FFF7A2FFE06812210222FFF79DFF0123A36110BD7C280000C1190000F8B51B4B07461E68B36913B93046FFF7C7FF4836B4687368013B04D4B4F90C500C
:401AC00075B16834F8E733682BB938460421FFF7A1FF306008B13668ECE70C233B60F8BD4FF6FF73E3810123A38165662560A560656025616561A56104F15C00294608229B
:401B0000FFF73DFF6563A563A564E5642046F8BD7C2800002DE9F8438046894600F14804002694B1A5686768013F0CD4AB89012B07D9B5F90E30013303D040462946C847D1
:401B400006436835F0E72468EBE73046BDE8F88370B5CC1C24F0030408340C2C38BF0C24002C064603DA0C233360002070BD8C42F9D3204A136810461946A1B10A68121B68
:401B80000ED40B2A03D90A608B188C501FE08B420BBF5A684A6802605A6018BF0B4616E00B464968E9E7144D2B681BB9304600F0EBFA28603046214600F0E6FA421C034644
:401BC000D1D0C51C25F0030585420AD11C6003F10B001A1D20F00700821A0AD05142995070BD3046E91A00F0CFFA0130BBD02B46ECE770BDC881FF1FC481FF1F936810B5D3
:401C0000013B002B936009DA9469A34202DBCBB20A2B03D1BDE8104000F00ABB1368581C10601970C8B210BDF8B506460F461446D518AC4208D0304614F8011B3A46FFF7DA
:401C4000DDFF431CF5D100E00020F8BD2DE9F0439DB00D4690460393064618B183690BB9FFF7EEFE754B9D4201D1756808E0744B9D4201D1B56803E0724B9D4208BFF5684C
:401C8000AB891C070AD52B6943B10023099320238DF8293030238DF82A3041E03046294600F02CFB0028F0D04FF0FF30C2E0039A0134111D12680391002ABBBF524243F0C6
:401CC000020307920792B8BF049323782E2B7BD0DFF8808121784046032200F097FC38B1049AC8EB00004023834013430493013421785548062204F101088DF8281000F036
:401D000085FC002800F08580504B002B78D1039B073323F0070308330393099B3B44099343461C4613F8012B1AB9B4EB08090ED002E0252AF5D1F8E73046294642464B461A
:401D4000FFF772FF013070D0099B4B4409932378002B6AD000234FF0FF3204930793059206938DF853301A9304F101084446DFF8E89021784846052200F048FC08F10108B8
:401D8000049B30B1C9EB00000122824013430493ECE7D80644BF20228DF85320190744BF2B228DF8532022782A2A80D0234607991C4622780133303A092A03D80A2000FBB3
:401DC0000121F5E7079180E763782A2B0AD1039B02341A1D1B680392002BB8BF4FF0FF33059375E7611C00220C4623780131303B092B03D80A2000FB0232F5E7059267E75F
:401E000003AB0093304604A92A46114BAFF3008007E003AB0093304604A92A460C4B00F093F8421C07467FF478AFAB895B063FF53BAF09981DB0BDE8F08300BF80280000DE
:401E4000A0280000C0280000EA28000000000000291C0000E6280000E02800002DE9F84391461F468A680B6906469342B8BF1346C9F8003091F843200C46DDF8208012B1FA
:401E80000133C9F800302368990642BFD9F800300233C9F80030256815F006051CD094F843302268003318BF012392061FD5E118302081F843005A1C94F8451022440233E8
:401EC00082F8431013E03046394604F119020123C047013007D00135E368D9F800209B1A9D42F0DBDBE74FF0FF30BDE8F8833046394604F14302C0470130F4D02268D9F843
:401F00000050E36802F00602042A08BF5D1B2269A3680CBF25EAE57500259342C4BF9B1AED184FF00009A9450ADA3046394604F11A020123C0470130D5D009F10109F2E7A0
:401F40000020BDE8F88300002DE9FF410C461746227E98466E2A06460A9B01F1430100F0B08012D8632A23D00AD8002A00F0BD80582A40F0CC8084F84520DFF804E257E049
:401F8000642A1ED0692A1CD0C1E0732A00F0B18009D86F2A2ED0702A40F0B980226842F0200222603FE0752A24D0782A3BD0AEE01A6804F14205111D1960136884F8423031
:401FC000A9E020681A6810F0800F02D0101D186008E010F0400F02F10400186002D0B2F9003000E01368002B3EDA2D225B4284F8432039E020681A6810F0800F02D0101DDB
:40200000186007E010F0400F02F10400186001D0138800E01368227EDFF864E16F2A0CBF08220A221CE07822DFF858E184F845202268186812F0800F00F104051D6003D1D9
:40204000550601D5038800E00368D00744BF42F0200222601BB9226822F0200222601022002084F8430002E0DFF814E10A226568002DA8BF2068A560A4BF20F004002060C5
:4020800003B965B10D46B3FBF2F002FB10331EF8033005F8013D03460028F4D100E00D46082A0BD12368DA0708D5236962689A42DEBF302305F8013C05F1FF35491B21617B
:4020C0002EE025681A6815F0800F606903D0151D1D60136808E015F0400F02F104051D60136801D0188000E01860002323610D4616E01A68111D1960156800212846626889
:4021000000F084FA08B1401B6060636804E004F1420584F8422001232361002384F84330CDF800803046214603AA3B46FFF796FE013002D14FF0FF301FE0304639462A462A
:402140002369C0470130F5D023689B0705D4E068039B9842B8BF18460FE00025E368039A9B1A9D42F3DA3046394604F119020123C0470130DED00135F0E704B0BDE8F081F8
:40218000F12800000229000038B5064C0023054608462360FEF79EF9431C02D1236803B12B6038BDDC81FF1F10B50C46B1F90E1000F07EFA0028ABBF636DA3891B1823F446
:4021C0008053ACBF6365A38110BD2DE9F0411D468B890746DB050C46164605D5B1F90E100022022300F0B4F9A389384623F48053A381B4F90E1032462B46BDE8F04100F097
:402200006BB810B50C46B1F90E1000F0A1F9431CA38915BF606523F4805343F48053A38118BFA38110BDB1F90E1000F0D3B8000070B50D461446064618B183690BB9FFF73E
:40224000FFFB224B9C4201D1746808E0204B9C4201D1B46803E01F4B9C4208BFF468A369A360A3891A0709D523693BB123682069EDB2181A636998420FDB08E03046214612
:4022800000F03CF80028F1D04FF0FF3070BD3046214600F033F90028F6D1A3680130013BA36023685A1C22601D706369984204D0A389DB0707D50A2D05D13046214600F0C5
:4022C0001DF90028E0D1284670BD00BF80280000A0280000C028000038B5074C054600202060084611461A4600F03EFA431C02D1236803B12B6038BDDC81FF1F314B70B5D8
:402300001D6806460C4625B1AB6913B92846FFF797FB2D4B9C4201D16C6808E02B4B9C4201D1AC6803E02A4B9C4208BFEC68A3899AB211071DD4D50602D40922326038E058
:40234000500712D5616B41B104F14403994202D0304600F069F900236363A38923F02403A3810023636023692360A38943F00803A38123694BB9A38903F42073B3F5007F4D
:4023800003D03046214600F0F5F8A38913F0010205D00022A26062695242A26103E0990758BF6269A26022694AB903F0800080B230B143F04003A3814FF0FF3070BD002033
:4023C00070BD00BF9481FF1F80280000A0280000C028000038B5064C002305460846236000F09AF9431C02D1236803B12B6038BDDC81FF1F8A892DE9F041054610070C46EB
:4024000057D44B68002B02DC0B6C002B18DDE66AB6B102F48052002392B22F682B600AB1626D10E0216A28460123B047411C024609D12B683BB11D2B01D0162B46D12F608A
:402440000020BDE8F081A3895B0705D56368D21A636B0BB1236CD21AE66A00232846216AB047461CA38905D12A681AB11D2A01D0162A19D1002262602269D904226004D5F5
:40248000421C01D12B6803B96065616B2F600029D6D004F14403994202D0284600F0C4F800206063BDE8F08143F04003A381BDE8F0810F69002FC3D093070E680CBF4B6939
:4024C0000023C7EB06080F608B6012E0A3894FF0FF3043F04003A381BDE8F0812846216A3A464346A66AB0470028EFDD0744C0EB0808B8F1000FF1DCA2E7000038B50B69F1
:4025000005460C46DBB118B183690BB9FFF798FA0C4B9C4201D16C6808E00B4B9C4201D1AC6803E0094B9C4208BFEC68B4F90C302BB128462146BDE83840FFF75BBF00207D
:4025400038BD00BF80280000A0280000C028000038B5074C054600202060084611461A4600F0F2F8431C02D1236803B12B6038BDDC81FF1FF0B58B8991B09D0706460C469D
:4025800025D4B1F90E10002908DAA389002513F0800F14BF40274FF480670DE001AA00F099F80028F1DB029D4FF4806705F47045A5F500514D424D4130463946FFF7C8FACF
:4025C00060B9A3899A051DD443F00203A38104F14703236023610123636113E00A4BB362A389206043F08003A381206167614DB13046B4F90E1000F07FF818B1A38943F082
:402600000103A38111B0F0BDC119000010B5C9B202449042034605D01C7801308C42F8D1184610BD002010BD30B500293CD051F8042C0B1F1D49002AB8BF9B180A680C4605
:4026400012B95A600B6030BD93420DD219685818904201BF5A5852181A60426823605A6030BD994203D80A4651680029F9D1146815199D420AD11B682344D01888421360B7
:4026800012D10868034413604B680CE002D90C23036030BD1C681819884201BF08684968001918605960536030BD00BFC881FF1F38B5074C054600202060084611461A4674
:4026C00000F04AF8431C02D1236803B12B6038BDDC81FF1F38B5074C0023054608461146236000F021F8431C02D1236803B12B6038BD00BFDC81FF1F38B5064C0023054685
:402700000846236000F018F8431C02D1236803B12B6038BDDC81FF1F024B58221A604FF0FF307047DC81FF1F024B58221A604FF0FF307047DC81FF1F024B58221A60002039
:40274000704700BFDC81FF1F024B58221A604FF0FF307047DC81FF1F024B58221A604FF0FF307047DC81FF1F024B58221A604FF0FF307047DC81FF1F000000006375727209
:40278000656E74206D6F646520697320626C696E6B00000063757272656E74206D6F64652069732072616D7000000000E0010000D8010000D0010000C8010000C001000038
:4027C000C0010000C0010000C0010000B881FF1FB881FF1FB881FF1FB881FF1FB881FF1FB881FF1FB881FF1FB881FF1FB881FF1FB881FF1FB881FF1FB881FF1FB881FF1F2B
:40280000B881FF1FB881FF1FB881FF1FB881FF1FB881FF1FB881FF1F0000004810000048080000481800004898000048180100489801004818020048980200481803004875
:4028400098030048180400489804004818050048980500481806004898060048180700489807004818080048980800481809004898090048180A0048430000003481FF1F27
:402880000000000000000000000000000000000000000000000000000000000000000000000000000000000000000000000000000000000000000000000000000000000018
:4028C0000000000000000000000000000000000000000000000000000000000000000000232D302B2000686C4C00656667454647003031323334353637383941424344458D
:402900004600303132333435363738396162636465660000F8B500BFF8BC08BC9E4670470D020000BD050000F8B500BFF8BC08BC9E467047E9010000482900000881FF1F1E
:40294000900000004800000000000000F4010000F4010000FA000000FA0000000000003FE081FF1F00366E01C05D0000180000000000E02E0000000080280000A02800008B
:40298000C02800000000000000000000000000000000000078280000000000000000000000000000000000000000000000000000000000000000000000000000000000008F
:4029C00000000000000000000000000000000000000000003481FF1F0000000000000000000000000000000000000000000000000000000000000000000000000000000004
:402A00000000000000000000000000000000000000000000000000000000000000000000000000000000000000000000000000000000000000000000000000000000000096
:402A40000000000000000000000000000000000000000000000000000000000000000000000000000000000000000000000000000000000000000000000000000000000056
:402A80000000000000000000000000000000000000000000000000000000000000000000000000000000000000000000000000000000000000000000000000000000000016
:402AC00000000000000000000000000000000000000000000000000000000000000000000000000000000000000000000000000000000000000000000000000000000000D6
:020000040003F7
:0200000480007A
:4000000000020000040000000F0000000000000000000000000000840100000000000000000000000000000000000000000000000000000000000000000000000000000026
:400040000000000000000000010000000000010000000000000041000000000000000000000000000000000000000000000000000400000400000001000000000000000034
:400080000000000000000000000000000000000000000000000000000000000000000000000000000000000000000000000000000000000000000000000000000000000040
:4000C000000000000000008000000000020000000000000000000000000000000000000000000000000000000000000000000000000000000000000000000000000000007E
:400100000800000000000000000000000000000000000000000000000000000000000000000000000000000000000000000000000000000000000080000000000000000037
:40014000000000000000000000000000020000000000000000000000000000000000000000000000000000000000000000000000000000000000000000000000000000007D
:40018000000000000000000000000000000000000000000000000000000000000000000000000000000000000000000000000000000000000000000000000000000000003F
:4001C00000000000000000000000000000000000000000000000000000000000000001000000000001000000000000000000000000000000000000000000000000000000FD
:4002000000000000000000000000000000000000000000000000000000000000000000000000000000000000000000000000000000000000000000000000000000000000BE
:40024000000000000000000000000000000004000000000000000000000000000000000000000000000000000000000000000000000000000000000000000000000000007A
:400280000000000000000800000000000000000000000000000000000000040000000000000000000000000000000000000000000000000000000000000000000000000032
:4002C00000000000000000000000000000000000000000000000000000000000000000000000000000000000000000000000000040000000000000000000000000000000BE
:40030000000000000000000000000000000000000000000000000000000000000000000040000000000000000000000000000000000000000000000000000000000000007D
:400340000000000000000000000000000000000000000000000000000200000000000000000000000000000000000000010000000000000000000000010000000000000079
:40038000000000000000000000000000000000000000000000000000000000000000000000000000000000000000000000000000000000000000000000000000000000003D
:4003C00000000000000000000000000000000000000000000000000000000000000000000000000000000000000000000000000000000000000000000000000000000000FD
:4004000010000000000008000000000000000000000000000000000000000000000000000000000000000000000000000000000000000000000000000000000000000000A4
:40044000000000000000000000000000000000000000000000000000000000000000000000000000000000000000000000000000000000000000000000000000000000007C
:400480001000000000000800000000000000000000000000000000000000000000000000000000000000000000000000000000000000000000000000000000000000000024
:4004C00000004000000000000000000001000000000000000000000000000000000000000000000000000000000000000000000000000000000000000000000000000000BB
:4005000000000000000000000000000000000000000000000000000000000000000000000000000000000000000000000000000000000000000000000000000000000000BB
:40054000000000000000000000000000000000000000000000000000000000000000000000000000000000000000000000000000000000000000000000000000000000007B
:400580000000000000000100000000000000000000000000000000000100000000000000000000000000000000000000000000000040800000000000000000000000000079
:4005C00000000000000000000000000000000000000000000000000000000000000000000000000000000000000000000000000000400000000000000000000000000000BB
:4006000001000000000000000000000000000000000000000000000000000000000000000100000000000000000000000000000000000000000000000000000000000000B8
:40064000000000000000000000000000000000000000000000000000080000000000000000000000000000000000000000000800000000000000000000000000000000006A
:40068000000000000000000000000000000000000000000000000000000000000000000000000000000000000000000000000000000000000000000000000000000000003A
:4006C00000000000000000200000000004000000000000000000000000000000000000000000000000000000000000000000000000000000000000000000000000000000D6
:4007000000000000000010000000000000000000000000000000000000000000000000000000000000000000000000000000000000000000000000000000000008000000A1
:400740000000000000000000000000000000000000000000000000000000000000000000000000000000000000000000000000000000000000000000000000000000000079
:400780000000000000000000000000000000000000000000000000000000000000000000000000000000000000000000000000000000000000000000000000000000002019
:4007C00000000000000000000000000000000000000000000000000000000000000000002000000000000000000000000000000000000000000000000000000000000000D9
:400800000000000000000000000000000000000000000000000000000000000000000000000000000000000000000000000000000000000000000000000000000000002098
:400840000000000000000000000000000000000000000000000000000000000000000000000000000000000000000000000000000000000000000000000000000000000078
:400880000000000000000000000000000000000000000000000000000000000000000000000000000000000000000000000000000000000000000000000000000000002018
:4008C00000200000000000000000000000000000000000000000000000000000000000000000000000000000000000000000000000000000000000000000000000000000D8
:4009000000000000000080000000000000000000000000000000000000000000000000000000000000000000000000000000000000000000002000000000000000000020F7
:400940000000000000000000000000000000000000000000000000000000000000000000000000000000000000000000000000000000000000000000000000000000000077
:400980000000000000000000000000000000000000000000000000000000000000000000000000000000000000000000000000000000000000000000000000000000000037
:4009C00000000000000000000000002000200000000000000000000000000000000000000000000000000000000000000000000000000000000000000000000000000000B7
:400A000000000000000000000000000000000000000000000000000000000000000000000000000000000000000000000000000000000000000000000000000000000000B6
:400A40000000000000000000000000000000000000000000000000000000000000000000000000003000000000000000000000000000000000000000000000000000000046
:400A800000000000000000000000000000000000000000000000000004000006020002000000000000000000000080000000000000000000000000000000000000000000A8
:400AC00000000000000000000000000000000000000000000000000000000000000000000000000000000000000000000000000000000000000000000000000000000000F6
:400B000000000000000000000000000000000000000000000000000000000000000000000000000000000000000000000000000000000000000000000000000000000000B5
:400B40000000000000000000000000000000000000000000000000000000000000000000000000000000000000000000000000000000000000000000000000000000000075
:400B80000000000000000000000000000000000000000000000000000000000000000000000000000000000000000000000000000000000000000000000000000000000035
:0200000490006A
:0400000000004005B7
:0200000490105A
:04000000BC90ACAF55
:0200000490303A
:020000006B96FD
:0200000490402A
:4000000000000000000000000000000000000000000000000000000000000000000000000000000000000000000000000000000000000000000000000000000000000000C0
:400040000000000000000000000000000000000000000000000000000000000000000000000000000000000000000000000000000000000000000000000000000000000080
:400080000000000000000000000000000000000000000000000000000000000000000000000000000000000000000000000000000000000000000000000000000000000040
:4000C0000000000000000000000000000000000000000000000000000000000000000000000000000000000000000000000000000000000000000000000000000000000000
:0200000490501A
:0C00000000012E16106900012E257BFF68
:00000001FF