:4000000000800020110000005D0400005D04000080B500AF024A034B1B68136000F022FABC760040FA460040080002230000087608000323000010760800042300002876AF
:4000400008000523000030760500062300002070050007230000307005000823000060700500FE230000707020000A220000005130000B220000405110000C220000C0513D
:400080001000FE220000F05180050E220000000080050F2200000006800010220000000C000211220000000E800112220000001480051322000000168000142200000041CD
:4000C0008000152200000042800016220000004300011722000000448000182200000046000119220000004780001A220000004980001B220000004D2000FE22000000506C
:4001000007001D23000010520800FE230000285B08001F2300000051800020230000800C800021230000804D800022230000004C800023230000804C8000242300008046BF
:4001400080002523000000458000262300008045800027230000801B8000282300008015800029230000800B80002A230000800580002B230000000D80002C230000800D3F
:4001800080002D230000804980002E230000004880002F230000804880003023000080438000312300008042800032230000804180003323000000408000FE2300008040BA
:4001C0000100000001000000010000000048014001000000004800400100000000200140010000000020004010B5054C237833B9044B13B10448AFF300800123237010BD85
:400200003081FF1F0000000038190000084B10B51BB108480849AFF300800848036803B910BD074B002BFBD0BDE81040184700BF00000000381900003481FF1F0881FF1F8D
:400240000000000080B500AF084B1B78002B06D1064B01221A70012000F0CCF805E0034B00221A70002000F0C5F880BD5981FF1F80B500AF4C4800F055FC62B64B4B002275
:400280001A704B4B01221A7000F0AAFC474B1B78002B0DD100F09CF803469B089BB21A46444B1A60434B1B68184600F0AFF876E03E4B1B78012B72D13F4B1B6818464FF0F6
:4002C0007E5101F0D3FA0346002B03D03B4B01221A700CE0384B1B6818464FF0000101F0BBFA0346002B02D0344B00221A70334B1B78002B17D0304B1B68184600F052FF90
:4003000002460B461046194625A3D3E9002300F0E9FD02460B461046194600F097FF0246254B1A6016E0244B1B68184600F03AFF02460B461046194619A3D3E9002300F0A4
:40034000D3FD02460B461046194600F07FFF0246194B1A601A4B10221A60194B1B68184601F07AF80246144B1B681046194601F0CBF80346184601F08DFA0246114B1A6042
:400380000F4B1A680F4B1B68D31A0F4A13600D4B1A680D4B1B681046194600F04BF875E77B14AE47E17A943F450200005981FF1F5A81FF1F0C81FF1F1C81FF1F4E81FF1F95
:4003C0001081FF1F1481FF1F1881FF1FAFF3008080B582B000AF00F0D7FC002000F0E4FC00F002FD0346FB80FB8818460837BD4680BD00BF80B582B000AF78607B68DBB2C9
:40040000184600F0DDFB0837BD4680BD80B582B000AF78600120FFF7EDFF786800F004FB0020FFF7E7FF786800F0FEFA0837BD4680BD00BF80B582B000AF786039600120AD
:40044000FFF7D8FF786800F0EFFA0020FFF7D2FF386800F0E9FA0837BD4680BD80B400AFFEE700BF80B586B000AF224B7B61224B3B61204B7B6135E03B691B68FB603B69A8
:400480005B68BB603B699B683B6000237B600CE0FB681A68BB681A60BB680433BB60FB680433FB607B6804337B607A683B689A42EED13B69DB683B6000237B6008E0BB68A6
:4004C00000221A60BB680433BB607B6804337B607A683B689A42F2D13B6910333B617B69013B7B617B69002BC6D101F0F3F9FFF7BFFEFEE7010000002C1A000080B582B08A
:4005000000AF174B174A1A60174A174B1B6843F40073136000237B600FE07B68032B04D8124A7B6852F8233000E0114B11497A6841F822307B6801337B607B682F2BECD9BF
:400540000D4B1B78DAB20D4B1A700D4B094A1A6000F0C4F90B4B00221A600837BD4680BD0CED00E00004FA0514ED00E0000000005D0400000080FF1FBC7600400481FF1F0E
:4005800008ED00E00081FF1F80B584B000AFF860B9607A60F868B9687A6801F0C1F91037BD4680BD80B483B000AF0346FB71FEE780B483B000AF434B00221A60424B102220
:4005C0001A70424B01221A70414B00221A70414B4FF4CC721A80404B01221A703F4B03221A703F4B3F4A92B21A803F4B47F608021A803E4B00221A803D4B4FF480421A801F
:400600003C4B09221A703C4B0D221A703B4B1C221A703B4B1E221A70BFF35F8F394B01221A70BFF35F8F00BF2A4B1B889BB2002BFAD100237B600DE07B68DA00324B134499
:400640001946324A7B6852F823309BB20B807B6801337B607B68322BEED9BFF35F8F294B01221A70BFF35F8F00BF294B1B78DBB203F00103002BF8D100BF264B1B78DBB25F
:4006800003F00103002BF8D100BF234B1B78DBB203F00103002BF8D100BF204B1B78DBB203F00103002BF8D100BF1D4B1B78DBB203F00103002BF8D10C37BD465DF8047B96
:4006C000704700BF5081FF1F007600401070004019700040007800400278004003780040047800402800000006780040047600400676004029700040397000406970004036
:4007000079700040147000400C7800403C190000187000402870004038700040687000407870004080B582B000AF334B0E221A80324B18221A70324B47F22F521A80314BFF
:4007400019221A70304B02221A704FF0402308221A702E4B03221A702D4B2E4A1278D2B21A702D4B08221A802C4B41F251221A800023FB7019237B6014E0FB785B00DAB29F
:40078000274B1B78DBB203F00103DBB21343DBB203F00303FB704FF4F07000F00DF97B68013B7B607B68002B02D0FB78032BE4D17B68002B02D10320FFF7F4FE194B4FF480
:4007C00080721A80174B07221A70174B00221A70164B48221A70134B00221A70144B02221A70144A134B1B78DBB243F00303DBB213700837BD4680BD804000408240004038
:4008000084400040864000400043004000420040A14600400801004922420040204200402542004004400040064000400840004001400040A243004080B582B000AF1D4B8D
:400840001B78FB711C4B1B78BB711C4B1B787B711B4AFB7903F00703DBB21370194AFB791B09DBB21370144ABB7943F00303DBB21370124A7B7943F00303DBB21370124BAB
:4008800080221A70114B60221A70114B80221A70104B20221A700A2000F0E8F8074A7B791370054ABB7913700B4B44221A700837BD4680BDCF010049F8460040F946004052
:4008C0006E5800406F5800403D51004009590040285B00402B5B00407658004080B500AF72B6274A264B1B78DBB243F00403DBB21370FFF75DFE234A224B1B78DBB243F00E
:400900000203DBB21370204A1F4B1B78DBB243F00203DBB213701D4A1C4B1B78DBB243F04003DBB213701A4A194B1B78DBB243F01003DBB21370174817490A22FFF724FEB1
:40094000164817490822FFF71FFE164A154B1B78DBB243F00803DBB21370134B60221A70FFF7E0FE104B80221A70104B01221A70FFF762FF0E4805490E22FFF705FE80BD20
:40098000E84600400350014013500140A0430040C243004020510040980A004832510040A40A0048224300400048004004000840B043004000000000142816D902B4012126
:4009C00014381049097811F0C001890904B40E4A515C04BC00BF00BF00BF8841FDD500BF00BF02BC704700BF00BF70F10400FCD570470B050709EFF3108072B6704780F3E6
:400A00001088704700480040F2090000AFF3008080B483B000AF0346FB7101BE0C37BD465DF8047B704700BF80B582B000AF786008E00C4B1B681846FFF7BEFF7B68A3F56C
:400A400000437B607B68B3F5004FF2D8064B1B687A6802FB03F31846FFF7AEFF0837BD4680BD00BF2C81FF1F2481FF1F80B582B000AF0346FB80FB88044A127802FB03F316
:400A80001846FFF799FF0837BD4680BD2881FF1F80B584B000AF03463960FB710F4B1B68FB60FB791F2B02D90020FFF7B1FFFB7903F01F0310339B00FA6813441B68BB6049
:400AC000FB7903F01F0310339B00FA6813443A681A60BB6818461037BD4680BD08ED00E080B582B000AF03460A46FB711346BB71BB79072B02D90020FFF78AFFFB791F2B9F
:400B000002D90020FFF784FFFB7903F01F0303F1604303F56443BA795201D2B21A700837BD4680BD80B582B000AF786000F03CF8786800F009F8072000F018F800F028F855
:400B40000837BD4680BD00BF80B485B000AF7860054B1B68FB60FB6844337A681A601437BD465DF8047B704708ED00E080B483B000AF0346FB71054AFB795B01DBB213703B
:400B80000C37BD465DF8047B704700BF01E400E080B400AF034B02221A60BD465DF8047B704700BF00E100E080B400AF034B02221A60BD465DF8047B704700BF80E100E0A6
:400BC00080B483B000AF0346FB71044AFB7913700C37BD465DF8047B704700BF7D64004080B500AF054B1B78002B04D100F008F8024B01221A7000F025F880BD5881FF1F42
:400C000080B500AF102000F04FF900200721FFF767FF00200849FFF73BFF084A074B1B78DBB243F00603DBB213700C2000F084F8034B00221A8080BD9D0E000009590040E7
:400C40006481FF1F80B582B000AFFFF7D4FE0346FB712E4A2D4B1B78DBB243F00203DBB213702B4A2A4B1B78DBB243F00203DBB21370284A274B1B78DBB243F00103DBB26C
:400C80001370254A244B1B78DBB243F00103DBB21370224B1B78BB71BB7943F00203BB71BB7943F00103BB711C4ABB7913701C4B18221A701B4A1B4B1B78DBB243F0400368
:400CC000DBB21370174A174B1B78DBB223F00303DBB21370144BC8221A70144B02221A70134A134B1B78DBB243F00803DBB213700A20FFF7BBFE0F4B01221A60FB7918462D
:400D0000FFF77DFE0837BD4680BD00BFAB430040BB430040A2430040B24300400B5900400E5900400D59004008590040164600402F5B004080E200E080B584B000AF0346A3
:400D4000FB71FB790A2B07D00C2B02D0082B06D008E0C223FB730BE08223FB7308E04223FB7305E0C223FB730020FFF751FE00BF044AFB7B1370FB79184600F04FF810378E
:400D8000BD4680BD0A59004080B400AF054A054B1B78DBB243F00103DBB21370BD465DF8047B70470859004080B584B000AF0346FB710C4B1B78DBB203F00103FB73FB7B19
:400DC000012B02D0FB79002BF3D0FB7B012B04D10120FFF74BFE034B1B78FB7B18461037BD4680BD0959004080B483B000AF094B1B88FB80084B1B889BB29BB2FA88D31A57
:400E00009BB29BB21BB218460C37BD465DF8047B704700BFA25B00405E81FF1F80B584B000AF0346FB71FB790A2B08D00C2B02D0082B08D00BE04FF48053FB600DE04FF435
:400E40008063FB6009E04FF48073FB6005E00023FB600020FFF7DCFD00BF0C4B00221A80FB6842F2107202FB03F303F59C530833074A82FB03121213DB17D31A054A1360BF
:400E8000054B00221A801037BD4680BD5C81FF1FAD8BDB686081FF1F5E81FF1F80B400AFBD465DF8047B704780B483B000AF0346FB71094B084A1278D2B2D1B2FA7922F035
:400EC0000702D2B20A43D2B2D2B21A700C37BD465DF8047B704700BF8240004081F0004102E000BF83F0004330B54FEA41044FEA430594EA050F08BF90EA020F1FBF54EA07
:400F0000000C55EA020C7FEA645C7FEA655C00F0E2804FEA5454D4EB5555B8BF6D420CDD2C4480EA020281EA030382EA000083EA010180EA020281EA0303362D88BF30BDBA
:400F400011F0004F4FEA01314FF4801C4CEA113102D0404261EB410113F0004F4FEA03334CEA133302D0524263EB430394EA050F00F0A780A4F10104D5F1200E0DDB02FA2B
:400F80000EFC22FA05F2801841F1000103FA0EF2801843FA05F359410EE0A5F120050EF1200E012A03FA0EFC28BF4CF0020C43FA05F3C01851EBE37101F0004507D54FF0BE
:400FC000000EDCF1000C7EEB00006EEB0101B1F5801F1BD3B1F5001F0CD349085FEA30004FEA3C0C04F101044FEA445212F5800F80F09A80BCF1004F08BF5FEA500C50F192
:40100000000041EB045141EA050130BD5FEA4C0C404141EB010111F4801FA4F10104E9D191F0000F04BF01460020B1FA81F308BF2033A3F10B03B3F120020CDA0C3208DD65
:4010400002F1140CC2F10C0201FA0CF021FA02F10CE002F11402D8BFC2F1200C01FA02F120FA0CFCDCBF41EA0C019040E41AA2BF01EB0451294330BD6FEA04041F3C1CDACE
:401080000C340EDC04F11404C4F1200220FA04F001FA02F340EA030021FA04F345EA030130BDC4F10C04C4F1200220FA02F001FA04F340EA0300294630BD21FA04F0294624
:4010C00030BD94F0000F83F4801306BF81F480110134013D4EE77FEA645C18BF7FEA655C29D094EA050F08BF90EA020F05D054EA000C04BF1946104630BD91EA030F1EBFFE
:401100000021002030BD5FEA545C05D14000494128BF41F0004130BD14F580043CBF01F5801130BD01F0004545F0FE4141F470014FF0000030BD7FEA645C1ABF1946104673
:401140007FEA655C1CBF0B46024650EA013406BF52EA033591EA030F41F4002130BD00BF90F0000F04BF0021704730B54FF4806404F132044FF000054FF0000150E700BFBF
:4011800090F0000F04BF0021704730B54FF4806404F1320410F0004548BF40424FF000013EE700BF42004FEAE2014FEA31014FEA02701FBF12F07F4393F07F4F81F0605153
:4011C000704792F0000F14BF93F07F4F704730B54FF4607401F0004521F0004120E700BF50EA010208BF704730B54FF000050AE050EA010208BF704730B511F0004502D5F7
:40120000404261EB41014FF4806404F132045FEA915C3FF4DCAE4FF003025FEADC0C18BF03325FEADC0C18BF033202EBDC02C2F1200300FA03FC20FA02F001FA03FE40EACF
:401240000E0021FA02F11444C1E600BF4FEA4102B2F1E04324BFB3F5001CDCF1FE5C0DD901F0004C4FEAC0024CEA5070B2F1004F40EB830008BF20F00100704711F0804F71
:4012800021D113F13872BCBF01F00040704741F480114FEA5252C2F11802C2F1200C10FA0CF320FA02F018BF40F001004FEAC1234FEAD32303FA0CFC40EA0C0023FA02F326
:4012C0004FEA4303CCE77FEA625307D150EA01331EBF4FF0FE4040F44000704701F0004040F0FE4040F40000704700BF80F0004002E000BF81F0004142001FBF5FEA4103DA
:4013000092EA030F7FEA226C7FEA236C6AD04FEA1262D2EB1363C1BFD218414048404140B8BF5B42192B88BF704710F0004F40F4000020F07F4018BF404211F0004F41F49C
:40134000000121F07F4118BF494292EA030F3FD0A2F1010241FA03FC10EB0C00C3F1200301FA03F100F0004302D5494260EB4000B0F5000F13D3B0F1807F06D340084FEA4B
:40138000310102F10102FE2A51D2B1F1004F40EBC25008BF20F0010040EA03007047490040EB000010F4000FA2F10102EDD1B0FA80FCACF1080CB2EB0C0200FA0CF0AABF14
:4013C00000EBC25052421843BCBFD0401843704792F0000F81F4000106BF80F400000132013BB5E74FEA41037FEA226C18BF7FEA236C21D092EA030F04D092F0000F08BF2B
:401400000846704790EA010F1CBF0020704712F07F4F04D1400028BF40F00040704712F100723CBF00F50000704700F0004343F0FE4040F4000070477FEA226216BF0846BD
:401440007FEA23630146420206BF5FEA412390EA010F40F4800070474FF0000304E000BF10F0004348BF40425FEA000C08BF704743F0964301464FF000001CE050EA01023C
:4014800008BF70474FF000030AE000BF50EA010208BF704711F0004302D5404261EB41015FEA010C02BF84460146002043F0B64308BFA3F18053A3F50003BCFA8CF2083A2A
:4014C000A3EBC25310DB01FA02FC634400FA02FCC2F12002BCF1004F20FA02F243EB020008BF20F00100704702F1200201FA02FCC2F1200250EA4C0021FA02F243EB020080
:4015000008BF20EADC7070474FF0FF0C1CEAD0521EBF1CEAD15392EA0C0F93EA0C0F6FD01A4480EA010C400218BF5FEA41211ED04FF0006343EA501043EA5111A0FB0131DE
:401540000CF00040B1F5000F3EBF490041EAD3715B0040EA010062F17F02FD2A1DD8B3F1004F40EBC25008BF20F00100704790F0000F0CF0004C08BF49024CEA502040EAD7
:4015800051207F3AC2BFD2F1FF0340EAC250704740F400004FF00003013A5DDC12F1190FDCBF00F000407047C2F10002410021FA02F1C2F1200200FA02FC5FEA310040F1B5
:4015C000000053EA4C0308BF20EADC70704792F0000F00F0004C02BF400010F4000F013AF9D040EA0C0093F0000F01F0004C02BF490011F4000F013BF9D041EA0C018FE7D0
:401600000CEAD15392EA0C0F18BF93EA0C0F0AD030F0004C18BF31F0004CD8D180EA010000F00040704790F0000F17BF90F0004F084691F0000F91F0004F14D092EA0C0FA8
:4016400001D142020FD193EA0C0F03D14B0218BF084608D180EA010000F0004040F0FE4040F40000704740F0FE4040F4400070474FF0FF0C1CEAD0521EBF1CEAD15392EA3B
:401680000C0F93EA0C0F69D0A2EB030280EA010C49024FEA402037D04FF0805343EA111143EA10130CF000408B4238BF5B0042F17D024FF4000C8B4224BF5B1A40EA0C00E2
:4016C000B3EB510F24BFA3EB510340EA5C00B3EB910F24BFA3EB910340EA9C00B3EBD10F24BFA3EBD10340EADC001B0118BF5FEA1C1CE0D1FD2A3FF650AF8B4240EBC25045
:4017000008BF20F0010070470CF0004C4CEA50207F32C2BFD2F1FF0340EAC250704740F400004FF00003013A37E792F0000F00F0004C02BF400010F4000F013AF9D040EA64
:401740000C0093F0000F01F0004C02BF490011F4000F013BF9D041EA0C0195E70CEAD15392EA0C0F08D142027FF47DAF93EA0C0F7FF470AF084676E793EA0C0F04D14B02BB
:401780003FF44CAF08466EE730F0004C18BF31F0004CCAD130F000427FF45CAF31F000437FF43CAF5FE700BF4FF0FF3C06E000BF4FF0010C02E000BF4FF0010C4DF804CDF8
:4017C0004FEA40024FEA41037FEA226C18BF7FEA236C11D001B052EA530C18BF90EA010F58BFB2EB030088BFC81738BF6FEAE17018BF40F0010070477FEA226C02D15FEA4D
:40180000402C05D17FEA236CE4D15FEA412CE1D05DF8040B704700BF844608466146FFE70FB5FFF7C9FF002848BF10F1000F0FBD4DF808EDFFF7F4FF0CBF012000205DF8C2
:4018400008FB00BF4DF808EDFFF7EAFF34BF012000205DF808FB00BF4DF808EDFFF7E0FF94BF012000205DF808FB00BF4DF808EDFFF7D2FF94BF012000205DF808FB00BFDC
:401880004DF808EDFFF7C8FF34BF012000205DF808FB00BF42000ED2B2F1FE4F0BD34FF09E03B3EB126209D44FEA002343F0004323FA02F070474FF00000704712F1610F26
:4018C00001D1420202D14FF0FF3070474FF00000704700BF0E4B70B51E460E4C0025E41AA410A54204D056F8253098470135F8E700F08AF8084B094C1E46E41AA41000256B
:40190000A54204D056F8253098470135F8E770BD141A0000141A0000141A00001C1A000010B5431E0A44914204D011F8014B03F8014FF8E710BD000000000000E001000020
:40194000D8010000D0010000C8010000C0010000C0010000C0010000C00100005081FF1F5081FF1F5081FF1F5081FF1F5081FF1F5081FF1F5081FF1F5081FF1F5081FF1F89
:401980005081FF1F5081FF1F5081FF1F5081FF1F5081FF1F5081FF1F5081FF1F5081FF1F5081FF1F5081FF1F00000048100000480800004818000048980000481801004840
:4019C0009801004818020048980200481803004898030048180400489804004818050048980500481806004898060048180700489807004818080048980800481809004897
:401A000098090048180A0048F8B500BFF8BC08BC9E4670470D020000FD040000F8B500BFF8BC08BC9E467047E9010000401A00000881FF1F280000003800000000000000FA
:401A400000000000F4010000F4010000FA000000FA0000000000003F00366E01C05D0000180000000000E02E00000000000000000000000000000000000000000000000061
:401A80000000000000000000000000000000000000000000000000000000000000000000000000000000000000000000000000000000000000000000000000000000000026
:401AC00000000000000000000000000000000000000000000000000000000000000000000000000000000000000000000000000000000000000000000000000000000000E6
:401B000000000000000000000000000000000000000000000000000000000000000000000000000000000000000000000000000000000000000000000000000000000000A5
:401B40000000000000000000000000000000000000000000000000000000000000000000000000000000000000000000000000000000000000000000000000000000000065
:020000040003F7
:0200000480007A
:4000000000020000040000000F0000000000000000000000000000840100000000000000000000000000000000000000000000000000000000000000000000000000000026
:400040000000000000000000010000000000010000000000000041000000000000000000000000000000000000000000000000000400000400000001000000000000000034
:400080000000000000000000000000000000000000000000000000000000000000000000000000000000000000000000000000000000000000000000000000000000000040
:4000C000000000000000008000000000020000000000000000000000000000000000000000000000000000000000000000000000000000000000000000000000000000007E
:400100000800000000000000000000000000000000000000000000000000000000000000000000000000000000000000000000000000000000000080000000000000000037
:40014000000000000000000000000000020000000000000000000000000000000000000000000000000000000000000000000000000000000000000000000000000000007D
:40018000000000000000000000000000000000000000000000000000000000000000000000000000000000000000000000000000000000000000000000000000000000003F
:4001C00000000000000000000000000000000000000000000000000000000000000001000000000001000000000000000000000000000000000000000000000000000000FD
:4002000000000000000000000000000000000000000000000000000000000000000000000000000000000000000000000000000000000000000000000000000000000000BE
:40024000000000000000000000000000000004000000000000000000000000000000000000000000000000000000000000000000000000000000000000000000000000007A
:400280000000000000000800000000000000000000000000000000000000040000000000000000000000000000000000000000000000000000000000000000000000000032
:4002C00000000000000000000000000000000000000000000000000000000000000000000000000000000000000000000000000040000000000000000000000000000000BE
:40030000000000000000000000000000000000000000000000000000000000000000000040000000000000000000000000000000000000000000000000000000000000007D
:400340000000000000000000000000000000000000000000000000000200000000000000000000000000000000000000010000000000000000000000010000000000000079
:40038000000000000000000000000000000000000000000000000000000000000000000000000000000000000000000000000000000000000000000000000000000000003D
:4003C00000000000000000000000000000000000000000000000000000000000000000000000000000000000000000000000000000000000000000000000000000000000FD
:4004000010000000000008000000000000000000000000000000000000000000000000000000000000000000000000000000000000000000000000000000000000000000A4
:40044000000000000000000000000000000000000000000000000000000000000000000000000000000000000000000000000000000000000000000000000000000000007C
:400480001000000000000800000000000000000000000000000000000000000000000000000000000000000000000000000000000000000000000000000000000000000024
:4004C00000004000000000000000000001000000000000000000000000000000000000000000000000000000000000000000000000000000000000000000000000000000BB
:4005000000000000000000000000000000000000000000000000000000000000000000000000000000000000000000000000000000000000000000000000000000000000BB
:40054000000000000000000000000000000000000000000000000000000000000000000000000000000000000000000000000000000000000000000000000000000000007B
:400580000000000000000100000000000000000000000000000000000100000000000000000000000000000000000000000000000040800000000000000000000000000079
:4005C00000000000000000000000000000000000000000000000000000000000000000000000000000000000000000000000000000400000000000000000000000000000BB
:4006000001000000000000000000000000000000000000000000000000000000000000000100000000000000000000000000000000000000000000000000000000000000B8
:40064000000000000000000000000000000000000000000000000000080000000000000000000000000000000000000000000800000000000000000000000000000000006A
:40068000000000000000000000000000000000000000000000000000000000000000000000000000000000000000000000000000000000000000000000000000000000003A
:4006C00000000000000000200000000004000000000000000000000000000000000000000000000000000000000000000000000000000000000000000000000000000000D6
:4007000000000000000010000000000000000000000000000000000000000000000000000000000000000000000000000000000000000000000000000000000008000000A1
:400740000000000000000000000000000000000000000000000000000000000000000000000000000000000000000000000000000000000000000000000000000000000079
:400780000000000000000000000000000000000000000000000000000000000000000000000000000000000000000000000000000000000000000000000000000000002019
:4007C00000000000000000000000000000000000000000000000000000000000000000002000000000000000000000000000000000000000000000000000000000000000D9
:400800000000000000000000000000000000000000000000000000000000000000000000000000000000000000000000000000000000000000000000000000000000002098
:400840000000000000000000000000000000000000000000000000000000000000000000000000000000000000000000000000000000000000000000000000000000000078
:400880000000000000000000000000000000000000000000000000000000000000000000000000000000000000000000000000000000000000000000000000000000002018
:4008C00000200000000000000000000000000000000000000000000000000000000000000000000000000000000000000000000000000000000000000000000000000000D8
:4009000000000000000080000000000000000000000000000000000000000000000000000000000000000000000000000000000000000000002000000000000000000020F7
:400940000000000000000000000000000000000000000000000000000000000000000000000000000000000000000000000000000000000000000000000000000000000077
:400980000000000000000000000000000000000000000000000000000000000000000000000000000000000000000000000000000000000000000000000000000000000037
:4009C00000000000000000000000002000200000000000000000000000000000000000000000000000000000000000000000000000000000000000000000000000000000B7
:400A000000000000000000000000000000000000000000000000000000000000000000000000000000000000000000000000000000000000000000000000000000000000B6
:400A40000000000000000000000000000000000000000000000000000000000000000000000000003000000000000000000000000000000000000000000000000000000046
:400A800000000000000000000000000000000000000000000000000004000006020002000000000000000000000080000000000000000000000000000000000000000000A8
:400AC00000000000000000000000000000000000000000000000000000000000000000000000000000000000000000000000000000000000000000000000000000000000F6
:400B000000000000000000000000000000000000000000000000000000000000000000000000000000000000000000000000000000000000000000000000000000000000B5
:400B40000000000000000000000000000000000000000000000000000000000000000000000000000000000000000000000000000000000000000000000000000000000075
:400B80000000000000000000000000000000000000000000000000000000000000000000000000000000000000000000000000000000000000000000000000000000000035
:0200000490006A
:0400000000004005B7
:0200000490105A
:04000000BC90ACAF55
:0200000490303A
:02000000C8F541
:0200000490402A
:4000000000000000000000000000000000000000000000000000000000000000000000000000000000000000000000000000000000000000000000000000000000000000C0
:400040000000000000000000000000000000000000000000000000000000000000000000000000000000000000000000000000000000000000000000000000000000000080
:400080000000000000000000000000000000000000000000000000000000000000000000000000000000000000000000000000000000000000000000000000000000000040
:4000C0000000000000000000000000000000000000000000000000000000000000000000000000000000000000000000000000000000000000000000000000000000000000
:0200000490501A
:0C00000000012E16106900012E1FD95EB1
:00000001FF